:020000040800F2
:10000000D84E00205D02000805450008AD1C000820
:10001000B9440008A90300088D4C00080000000046
:100020000000000000000000000000009D0100082A
:100030002D07000800000000F901000891450008A4
:1000400077020008770200087702000877020008AC
:10005000770200087702000877020008770200089C
:10006000770200087702000877020008770200088C
:10007000770200087702000877020008770200087C
:10008000770200087702000877020008770200086C
:100090007702000877020008770200083707000897
:1000A000770200086146000877020008770200081E
:1000B000770200087702000877020008770200083C
:1000C000770200087702000877020008770200082C
:1000D00077020008814C00087702000877020008C8
:1000E0002F0700087702000877020008770200084F
:1000F00077020008770200087702000877020008FC
:1001000077020008770200087702000877020008EB
:1001100077020008770200087702000877020008DB
:1001200077020008770200087702000877020008CB
:1001300077020008770200087702000877020008BB
:1001400077020008770200087702000877020008AB
:10015000770200087702000877020008770200089B
:10016000770200087702000877020008770200088B
:1001700077020008770200087702000800000000FC
:100180007702000877020008DFF80CD000F0FAF8D8
:100190000048004749520008D84E00202C4B1968EF
:1001A0000868B0E8F04F80F30988BFF36F8F4FF015
:1001B000000080F3118870470000000008480068C4
:1001C000006880F308884FF0000080F3148862B65E
:1001D00061B6BFF34F8FBFF36F8F00DF00BF00BF6B
:1001E00008ED00E0DFF80C00016841F470010160E7
:1001F000704700BF88ED00E0EFF30980BFF36F8F19
:10020000134B1A681EF0100F08BF20ED108A20E96A
:10021000F04F106009B44FF0500080F31188BFF325
:100220004F8FBFF36F8F06F057F94FF0000080F348
:10023000118809BC19680868B0E8F04F1EF0100F6B
:1002400008BFB0EC108A80F30988BFF36F8F704746
:1002500040000020EFF3058070470000064880470B
:1002600006480047FEE7FEE7FEE7FEE7FEE7FEE79B
:10027000FEE7FEE7FEE7FEE74546000889010008C5
:100280002DE9F05F0546002092469B4688460646CB
:10029000814640241BE0284641464746224600F05E
:1002A00061F853465A46C01A914110D31146184678
:1002B000224600F048F82D1A67EB01084F46224607
:1002C0000120002100F03FF817EB00094E41201EED
:1002D000A4F10104DFDC484631462A464346BDE826
:1002E000F09F40EA01039B0703D009E008C9121FF1
:1002F00008C0042AFAD203E011F8013B00F8013BE0
:10030000521EF9D27047D2B201E000F8012B491E0B
:10031000FBD270470022F6E710B513460A460446A2
:100320001946FFF7F0FF204610BD10B5002200E08F
:10033000521C835C8C5CA34201D1002BF8D1D8B253
:10034000E1B2401A10BD202A04DB203A00FA02F183
:10035000002070479140C2F1200320FA03F31943B3
:1003600090407047202A04DB203A21FA02F0002155
:10037000704721FA02F3D040C2F1200291400843B5
:1003800019467047064C074D06E0E06840F001034F
:1003900094E8070098471034AC42F6D3FFF7F8FE14
:1003A000A8470C08C8470C08FEE70000084C094D98
:1003B000608830B1142104F0CDFE012004F0CEFF9E
:1003C000F6E700224021284600F085FD0A20F5E7E7
:1003D000000000200018024010B5144C00228021BB
:1003E000204600F078FD00F08FF9022004F008FFAD
:1003F000002208210E4800F06EFD022004F000FFEC
:10040000022004F0FDFE01228021204600F063FD61
:10041000022004F0F5FE022004F0F2FE2046002245
:10042000BDE81040802100F056BD000000180240D9
:100430000020024070B586B000F0CAFE1E49B0FB35
:10044000F1F008B1FF2800D9A820C0B204F0C4FE22
:100450001A48016841F040010160016801F0400163
:100460000591016841F4807101600068012400F485
:10047000807005908020CDE90004114E0225694668
:100480003046CDE9024500F045FC0122802130468E
:1004900000F021FD0820CDE90004CDE90245094C1A
:1004A0006946204600F036FC01220821204600F073
:1004B00012FD06B070BD000040420F00303802400F
:1004C000001802400020024010B5114C002280218B
:1004D000204600F000FD00F017F9022004F090FE25
:1004E000012208210B4800F0F6FC022004F088FEEF
:1004F00001228021204600F0EEFC022004F080FE64
:1005000020460022BDE81040802100F0E4BC00003D
:1005100000180240002002402DE9F0410746002467
:1005200000F0E2F8144EDFF854800025002280210C
:10053000304600F0D0FC042004F062FE012280214D
:10054000304600F0C8FC6006040E0821404600F06A
:10055000BDFC08B1641CE4B2042004F051FE6D1C23
:10056000EDB2082DE2D327B1FFF736FF2046BDE8F4
:10057000F081FFF7A9FFF9E70018024000200240D0
:100580002DE9F041054600F0BFF8174E002280210A
:10059000304600F0A0FC022004F032FE134F00248D
:1005A000280601D5012200E000220821384600F08B
:1005B00092FC6806050E052004F022FE012280212F
:1005C000304600F088FC052004F01AFE002280214D
:1005D000304600F080FC052004F012FE641CE4B2FA
:1005E000082CDDD3BDE8F081001802400020024055
:1005F00070B500F089F80F4C01220821204600F068
:100600006AFC0D4D01228021284600F064FC052083
:1006100004F0F6FD00220821204600F05CFC0520D5
:1006200004F0EEFD2846BDE870400022802100F075
:1006300052BC0000002002400018024070B500F0DB
:1006400063F80F4C01228021204600F044FC0D4D40
:1006500000220821284600F03EFC052004F0D0FDD1
:1006600001220821284600F036FC052004F0C8FDD0
:100670002046BDE870400022802100F02CBC000024
:10068000001802400020024070B5002400F02CF851
:10069000134D01220821284600F01DFC022004F021
:1006A000AFFD104E01228021304600F014FC07E01F
:1006B000641CE4B2FA2C03D9FFF7C0FF012070BD1F
:1006C000022004F09DFD0821284600F0FFFB0028D1
:1006D000EED100228021304600F0FDFB002070BDED
:1006E000002002400018024000B585B008200090AC
:1006F00000200190012002906946024800F00AFBA8
:1007000005B000BD0020024000B585B00820009073
:10071000012001900290022003906946024800F0F7
:10072000F9FA05B000BD00000020024070474FF408
:10073000006000F0E3BA4FF4007000F0DFBA7047D9
:1007400070B5B3F5804F05D06FF0704140F82210BE
:10075000002070BD50F82240084B8E891C40D1E922
:10076000003543EA05138D6889692D0245EA06457F
:100770002B430B43234340F82230E9E70000F0CF3E
:10078000F0B50C6850F82430114A1340D1E9012526
:10079000D1E903672A433E4332434E6932438E69AF
:1007A0003243CE6932430E6A32434E6A32438E6A16
:1007B0003243CE6A3243CE6B096B32430A431A434B
:1007C000082D01D142F0400240F824200020F0BD65
:1007D0008000F0FF30B500EB820250688D8900F098
:1007E0004043D1E9000440EA04108C68240244EA42
:1007F000054420430C8A074D05EB045420430C7D2F
:100800006D0105EB04648969204308431843506077
:10081000002030BD0000F0FF2DE9F041404888B0D5
:100820000024016841F480710160016801F4807165
:100830000791016841F0040101600068042600F09E
:100840000400079001AA012503270096DFF8D48051
:1008500082E8B0006946404600F05CFACDE90257F4
:100860008020CDE90005304F6946384600F052FA45
:10087000FFF7E0FD00228021384600F02CFB0A2023
:1008800004F0B0FC01228021384600F024FB0A204D
:1008900004F0A8FC0096CDE90154022569464046C3
:1008A000039500F037FA642004F09CFC042205A9AB
:1008B00048F2401000F04EF88DF8184005A91BA032
:1008C00004F0E6F91CA105A8FFF72FFD18B10120DF
:1008D00008B0BDE8F0818DF8145048F240050122BF
:1008E00005A9284600F052F9012205A9E81D00F0EB
:1008F00031F89DF81410602905D211A004F0C8F950
:10090000012000F01BF90A2004F06CFC8DF8144063
:10091000012205A9284600F039F90020D8E7000097
:100920003038024000200240000802405450204964
:10093000443A25730D0A00003931343700000000B5
:1009400044656661756C74205665723A25640D0ABB
:10095000000000002DE9F04115460E460446FFF761
:1009600047FE2820FFF70CFEFFF78EFE200AFFF758
:1009700007FEFFF789FEE0B2FFF702FEFFF784FEF5
:10098000FFF736FE2920FFF7FBFDFFF77DFE002471
:100990006F1E09E0BC4201D0012000E00020FFF7FB
:1009A000BBFD3055641CE4B2AC42F3D3BDE8F0416A
:1009B000FFF744BE2DE9F1475C4E00244FF00A0AD0
:1009C000307885B0401CC0B2B0FBFAF20AFB1201CD
:1009D000574DA046307009B10A2879D248F24E1915
:1009E000012205A94846FFF7B5FF9DF814004FF016
:1009F000000701060AD500F00F00062806D28DF880
:100A0000007001226946484600F0C0F89DF81400C5
:100A100001075DD000F00F01062959D2FF20884060
:100A20008DF80000C04395F8149040F0C000287580
:100A300028882881688968824FF00108297D08FA92
:100A400004F0014229D03B48042203A930F81400E5
:100A5000FFF780FF95F824009DF80D10C0079DF862
:100A60000C0000EB01200DD005EB440148819DF8FE
:100A70000E009DF80F1000EB0120C0F5487025F81E
:100A800014000AE025F814009DF80E009DF80F10E0
:100A900000EB012005EB44014881641CE4B2052C05
:100AA000CCD325492A884FF001080B8828469A4262
:100AB00003D8428949888A4209D99DF8141001F067
:100AC0000F0101290BD94188018081896981377023
:100AD0009DF8140000F08F0080280AD01DE00189E5
:100AE0000180418A418180218DF8141085F814908D
:100AF000EEE7287D010609D520F0800028752888BA
:100B000070806989B180F080318106E04FF6FF7115
:100B10002980698100F0E00028753078F02801D93B
:100B200086F800A006B04046BDE8F0871800002017
:100B30008C010020842F0C08B401002008B500218E
:100B40008DF800108DF801000F4800BF435C9DF840
:100B50000020491C1A44C9B28DF80020B829F5D3E9
:100B6000D0B2C043401C8DF80000B822064948F2BC
:100B7000470000F00BF80222694648F2FF0000F03F
:100B800005F8002008BD0000CC2E0C082DE9F0412E
:100B900016460F4604460025FFF72AFD2820FFF7DA
:100BA000EFFCFFF771FD200AFFF7EAFCFFF76CFD91
:100BB000E0B2FFF7E5FCFFF767FD002408E0385DD1
:100BC000FFF7DEFCFFF760FD050003D1641CE4B213
:100BD000B442F4D3FFF732FD2846BDE8F08190F827
:100BE0003510022903D0802141650120704705217D
:100BF00080F835100068016821F0010101600020D3
:100C00007047000070B5044600F06AF90546601CA4
:100C100002D004480078044400F062F9401BA0426E
:100C2000FAD370BD300000202DE9F04186B01421C8
:100C30006846FFF76FFB2148016800293AD14FF061
:100C40000108C0F800801E480024016841F001013D
:100C500001600068022500F0010005904FF480500B
:100C6000CDE9000502AA03260C2782E8D0006946D8
:100C7000144800F04FF84CF23370CDE9000502AA99
:100C8000694682E8D000104800F044F802AA69469C
:100C900082E8D000CDE900850C4800F03BF84FF623
:100CA0008070CDE9000502AA694682E8D0000848B4
:100CB00000F030F806B0BDE8F08100001000002020
:100CC0003838024000180240000C02400014024074
:100CD00000100240B0F5007F0CD1074801780029D0
:100CE00008D04178002905D18068002802D0012170
:100CF00004F052BC7047000000000020044910B509
:100D00000A68024202D00860FFF7E4FF10BD00004D
:100D1000143C01402DE9F84F00224FF00108032553
:100D20004FF00F0E0B6808FA02F42340A3426ED175
:100D30004E68012E05D0022E03D0112E01D0122EA6
:100D400012D186684FEA420C05FA0CF7BE43CF6811
:100D500007FA0CF7374387604668A6430C79C4F35B
:100D60000014944034434460C668570005FA07FCF9
:100D70008C6826EA0C06BC403443C4604C68022CE4
:100D800001D0122C13D1D40800EB8404A346D4F86C
:100D9000209054074FEAD46A0EFA0AF629EA0609A7
:100DA0000E6906FA0AF646EA0906CBF820600668DC
:100DB0000C7926EA0C0604F00304BC4034430460BA
:100DC0004C68E40065D5364C266846F480462660BB
:100DD000246822F0030604F480440094314C344427
:100DE000A446D4F808489607370F0EFA07F6B4431E
:100DF0002D4EB04201D1002624E02C4EB04201D14C
:100E000001261FE02A4EB04202D102261AE040E03D
:100E1000284EB04201D1032614E0274EB04201D142
:100E200004260FE0254EB04201D105260AE0244EEB
:100E3000B04201D1062605E0224EB04201D107267C
:100E400000E00826BE402643CCF808681E4E3468F1
:100E50004F689C43FF0300D51C4334601A4C241D8B
:100E600026684F689E43BF0300D51E432660164E7A
:100E7000083634684F689C43FF0200D51C43346039
:100E8000114E0C3634684F689C43BF0200D51C439A
:100E90003460521C102AFFF445AFBDE8F88F000003
:100EA000443802400030014000000240000402408B
:100EB00000080240000C02400010024000140240F2
:100EC00000180240001C0240003C0140006908403C
:100ED00000D0012070470AB1816170470904FBE727
:100EE0000148806870470000300000200248816897
:100EF0000278114481607047300000200B4810B523
:100F0000016841F400710160016841F48061016091
:100F1000016841F480710160032000F08DF8002029
:100F200000F006F800F03EF8002010BD003C024042
:100F300010B5014688B00022192000F05DF8192094
:100F400000F04CF813480024016841F001010160F1
:100F5000006805A900F001000690684600F018F945
:100F600000F04CF90C494000B0FBF1F10C480B4A81
:100F7000491E026040F2E732C0E90324C0E90114CF
:100F800000F05BFB10B1012008B010BD044800F078
:100F900083FBF9E74438024040420F000000014063
:100FA0004C0100200C4882B0016841F4804101608E
:100FB000006800F4804000900748001F016841F07D
:100FC000805101600068002200F0805000900F21E5
:100FD000901E02B000F010B844380240002809DB2F
:100FE00000F01F02012191404009800000F1E02043
:100FF000C0F8001170470000F0B40E4B1B680C469F
:10100000C3F30223C3F10705042D00D90425191DDC
:10101000072901D2002300E0DB1E012606FA05F1B4
:10102000491E214099409E40761E16403143F0BC37
:1010300003F03EBE0CED00E0064900F00702086830
:101040004FF6FF03184040EA0220034A10430860AD
:10105000704700000CED00E00000FA052DE9F047B4
:101060000E46050065D0DFF81481D8F80000F7B20D
:1010700000F00F00B04207D288F80070D8F80000E6
:1010800000F00F00B04254D128683D4C810712D5C2
:10109000400703D5206840F4E0502060287800071E
:1010A00003D5206840F4604020602068A96820F0E3
:1010B000F000084320602878C0072DD030496868C8
:1010C0000839012812D0022813D0032811D009684A
:1010D000890700292DDA216821F0030101432160ED
:1010E000FFF7FEFE814641F2883A0EE00968890367
:1010F000EFE709688901ECE7FFF7F2FEA0EB0901D1
:10110000514502D90320BDE8F0872068696800F0E6
:101110000C00B0EB810FEFD1D8F80010404601F081
:101120000F01B14207D90770006800F00F00B0420C
:1011300001D00120E7E72878400705D52068E96855
:1011400020F4E050084320602878000706D5206886
:10115000296920F4604040EAC100206000F05EF898
:101160002168084AC1F30311515CC8400649086070
:1011700006480068FFF7DCFE0020C4E7003C0240A0
:10118000083802404E470C083C0000203400002084
:101190000F2202600C4A136803F0030343601368D4
:1011A00003F0F0038360136803F4E053C360126834
:1011B0004FF4E05303EAD20202610448006800F0F1
:1011C0000F0008607047000008380240003C0240F1
:1011D00001480068704700003C00002004480549B1
:1011E00000680968044AC1F38221515CC840704715
:1011F0003C000020083802405E470C0804480549BE
:1012000000680968044AC1F34231515CC840704724
:101210003C000020083802405E470C08154810B515
:10122000006810F00C02144813D01449042A0FD09F
:10123000082A0ED10F4C241F2268236802F03F02B7
:101240005B0207D52068C0F38810A0FB010106E00F
:10125000084610BD2168C1F38811A1FB00010023DD
:10126000FFF70EF82168C1F30141491C4900B0FBAA
:10127000F1F010BD083802400024F40040787D01F0
:101280002DE9F84F04006ED02078DFF83C93C007BA
:10129000A9F104054AD009F104000168C1F38101F4
:1012A000012908D00068C0F3810002280AD1D9F8CA
:1012B0000000400206D52868800337D56068002802
:1012C000E1D033E06068B0F5803F10D0B0F5A02FDA
:1012D000286810D020F480302860286820F480200E
:1012E00028606068A8B1FFF7FBFD06460DE028689E
:1012F00040F48030F4E740F480202860F7E700BF36
:10130000FFF7EEFD801B642873D828688003F7D5AB
:101310000CE0FFF7E5FD064605E000BFFFF7E0FD46
:10132000801B6428F0D828688003F7D42078DFF881
:101330009C8280074FF0000A3ED5A348001D01683B
:1013400011F00C0F08D00068C0F3810002280BD107
:10135000D9F80000400207D42868800716D5E06855
:10136000012800D112E02BE1E068B8B10120C8F8F3
:101370000000FFF7B5FD064605E000BFFFF7B0FD32
:10138000801B0228C0D828688007F7D52868216903
:1013900020F0F80040EAC10028600DE0C8F800A085
:1013A000FFF79EFD064604E0FFF79AFD801B02282A
:1013B0001FD828688007F7D42078000722D5824EEE
:1013C00083486169703671B101210160FFF788FDC2
:1013D000074604E0FFF784FDC01B022809D83068E7
:1013E0008007F7D50EE0C0F800A0FFF779FD0746AB
:1013F00005E082E0FFF774FDC01B02287DD830684D
:101400008007F7D42078400768D5DFF8BCB1002703
:101410000BF13C0BDBF80000C0000BD4DBF8001034
:1014200041F08051CBF80010DBF80000012700F0FC
:1014300080500090674E3068C00510D4306840F48A
:1014400080703060FFF74CFD009005E0FFF748FD2D
:101450000099401A022850D83068C005F6D55A4E77
:10146000A0686C3601280FD00528306810D020F015
:1014700001003060306820F004003060A068B8B12E
:10148000FFF72EFD00900FE0306840F00100F4E718
:1014900040F004003060F7E7FFF722FD0099411AA1
:1014A00041F28830814266D830688007F4D50EE07A
:1014B000FFF716FD009007E0FFF712FD0099411AB3
:1014C00041F28830814256D830688007F4D42FB179
:1014D000DBF8001021F08051CBF80010A069C8B3F0
:1014E0003949091D0968C1F3810102294AD002283E
:1014F000504607D0C8F8600000E03CE0FFF7F0FC81
:1015000004463BE04746C8F86000FFF7E9FC0646A2
:1015100005E000BFFFF7E4FC801B02282BD82868F9
:101520008001F7D4D4E907010843A16A2A4A49088F
:1015300002EB0141626A41EA8211084394F82C10DF
:1015400040EA0161C9F8001001203866FFF7C8FCC5
:10155000044606E036E000BFFFF7C2FC001B02288D
:1015600009D828688001F7D52CE000BFFFF7B8FC48
:10157000001B022802D90320BDE8F88F28688001EB
:10158000F4D41FE00128F7D0D9F80000E26900F494
:101590008001914214D1226A00F03F0191420FD1A3
:1015A00047F6C071626A0140914209D1A26A00F413
:1015B0004031914204D1E16A00F07060884201D06C
:1015C0000120D9E70020D7E7043802400000474255
:1015D000800E4742007000400000FFFF70B51546C6
:1015E0000E46040003D094F8490010B107E0012032
:1015F00070BD002084F84800204600F01AF804F17D
:1016000008012068FFF7BCF83146A2682068FFF7A0
:10161000E1F8D4E901022946236BFFF791F8A168AC
:10162000206850F8212042F0010240F821200020DB
:1016300070BDFFF7F9BA7047704710B5040003D0CA
:1016400094F83D0010B107E0012010BD002084F89F
:101650003C00204600F00CF8022084F83D00211DDB
:10166000206803F003F8012084F83D00002010BD3D
:1016700008B500680649884208D10648016841F06B
:1016800040010160006800F04000009008BD0000CB
:1016900000180040403802400168CA6842F0010268
:1016A000CA600068816801F00701062903D001685B
:1016B00041F0010101600020704770B5044690F8C8
:1016C0003C00012817D0012584F83C50022084F802
:1016D0003D002068826822F0770222F47F42826017
:1016E0000868502830D00DDC20284DD005DC98B398
:1016F00010283BD148E0022070BD302844D040285B
:1017000034D139E0602828D0702806D0B0F5805F49
:101710002CD0B0F5005F29D10AE0CB68D1E90121D6
:10172000206803F014F82068816841F0770109E02F
:10173000CB68D1E90121206803F009F820688168AD
:1017400041F48041816011E0CA684968206803F073
:10175000D3F85021206807E016E0CA68496820687D
:1017600003F0DBF86021206802F0FBFF84F83D50B5
:10177000002084F83C0070BDCA684968206803F006
:10178000BBF840212068EFE7226801461046EBE7EE
:10179000704770B50446006801694FF00005C94301
:1017A000890715D4C168C943890711D4E91E0161AD
:1017B00001202077206880698007204602D0FFF74B
:1017C000E7FF04E000F0C2F8204600F044F9257776
:1017D00020680169C943490717D4C168C94349074B
:1017E00013D46FF004010161022020772068806922
:1017F00010F4407F204602D0FFF7CAFF04E000F05B
:10180000A5F8204600F027F9257720680169C9432B
:10181000090716D4C168C943090712D46FF008013B
:101820000161042020772068C0698007204602D02B
:10183000FFF7AEFF04E000F089F8204600F00BF956
:10184000257720680169C943C90617D4C168C9430F
:10185000C90613D46FF010010161082020772068B9
:10186000C06910F4407F204602D0FFF791FF04E0EA
:1018700000F06CF8204600F0EEF82577206801694A
:10188000C943C90708D1C168C943C90704D1891E22
:101890000161204600F002F920680169C943090688
:1018A00009D4C168C943090605D46FF080010161FC
:1018B0002046FFF7C0FE20680169C943490609D4E4
:1018C000C168C943490605D46FF040010161204653
:1018D00000F0EEF820680169C94389060BD4C1689D
:1018E000C943890607D46FF0200101612046BDE895
:1018F0007040FFF7A1BE70BD10B586B0044614213C
:101900006846FEF707FD0E492068884216D10D484B
:101910000021026842F002020260006800F002004A
:1019200005904FF4804000900220CDE9010109208C
:10193000CDE9031069460448FFF7ECF906B010BD85
:10194000001800403038024000040240704770B573
:10195000044690F83C000D4601280DD0012684F87D
:101960003C60022084F83D0042B1042A18D0082AC5
:101970002AD00C2A4DD139E0022070BD206802F037
:10198000F9FE2068816941F0080181612068816960
:1019900021F004018161206881692A69114311E005
:1019A000206802F017FF2068816941F400618161BD
:1019B0002068816921F480618161206881692A69D8
:1019C00041EA0221816124E0206802F039FF2068A9
:1019D000C16941F00801C1612068C16921F00401B9
:1019E000C1612068C1692A69114311E0206802F0D1
:1019F0005BFF2068C16941F40061C1612068C16971
:101A000021F48061C1612068C1692A6941EA02212B
:101A1000C16184F83D60002084F83C0070BD10B5C1
:101A2000040003D094F83D0010B107E0012010BD80
:101A3000002084F83C00204600F00CF8022084F8D6
:101A40003D00211D206802F011FE012084F83D00B8
:101A5000002010BD7047704710B504460068012291
:101A600002F068FE0B492068884202D00A49884289
:101A700003D1416C41F4004141642068816801F068
:101A80000701062903D0016841F00101016000202F
:101A900010BD00000000014000040140006803493F
:101AA000884201D1FFF722BA7047000000000140D0
:101AB0007047704770B5026804461068D168536972
:101AC00010F00F0F52D003F0010501F490762E4371
:101AD0005FD0C20705D0CA0503D5E26B42F0010210
:101AE000E263420705D5DA0703D0E26B42F0020257
:101AF000E263820705D5DA0703D0E26B42F0040205
:101B0000E263020707D501F020022A4303D0E26B0B
:101B100042F00802E263E26B002A33D0800604D56B
:101B2000880602D5204602F059FF20684069E16B23
:101B3000C0F38010090700D428B3204602F040FF0C
:101B40002068416949061AD5416921F04001416187
:101B5000606BA0B11B490165606BFFF740F800287E
:101B600010D0606B016DBDE870400847830610D54A
:101B70008B060ED52046BDE8704002F02FBF2046F0
:101B8000FFF797FF70BD2046FFF793FF0020E0634B
:101B900070BD030606D50B0604D52046BDE870408F
:101BA00002F0FCBF4006F3D54806F1D5D1682046C7
:101BB00021F04001D160202184F8391000F075F83F
:101BC00070BD0000B149000870B5040004D094F85D
:101BD0003900002510B106E0012070BD84F83850AE
:101BE000204600F023F8242084F839002068C168DA
:101BF00021F40051C160204602F03CFF20680169D9
:101C000021F4904101612068416921F02A0141617C
:101C10002068C16841F40051C160E563202084F868
:101C2000390084F83A00002070BD000010B586B07D
:101C3000044614216846FEF76DFB18492068884267
:101C400029D117480021026842F0100202600068A2
:101C500000F01000059012481438026842F00102AA
:101C60000260006800F0010005904FF4C060009031
:101C70000220CDE90101032003900720049069466A
:101C80000848FFF747F8002205212520FFF7B4F99F
:101C90002520FFF7A3F906B010BD00000010014099
:101CA000443802400000024070477047FEE70000E1
:101CB00070B50A490646002408884D8821464543E8
:101CC000204602F0ADF802F0CDF94FF0D84001E027
:101CD0004680641CAC42FBD370BD0000B401002000
:101CE00070B40E494FF4F0724FF448734FF4285417
:101CF0004FF42C554FF4305650B1012088710B80B1
:101D00004A804C818D810E8170BC062001F0DCBFC1
:101D1000002088710A804B80F3E70000B4010020A6
:101D20002DE9FF4F144C8A464FF0000B0D9D804665
:101D3000A4F806B0A3EB0A0719E000BFA4F804B0AA
:101D400002990AEB0009A1EB08060AE0404435F8C5
:101D5000022B1FFA89F180B200F010F8A088401C15
:101D6000A080A0888642F1DCE088401CE080E0880A
:101D70008742E3DCBDE8FF8F2200002010B5144647
:101D800002F04EF802F06EF94FF0D840448010BDDA
:101D90002DE9F041484C90460246A08823460D4666
:101DA0000F0A160A5B89A0F5134141391DD0A0F531
:101DB000A641103919D0A0F5AA4110391AD02646EB
:101DC000A0F5C85CB1793688B61A761EBCF1630CF2
:101DD0002AD0A0F5D04CBCF1040C41D0A0F50047AE
:101DE000093F53D0012956D056E0184602F033F986
:101DF00030463CE0184602F02EF9304602F024F955
:101E00006089401C80B202F026F9D0B202F01CF9C1
:101E1000A08902F020F9384602F016F9A089401C8A
:101E200080B202F018F92DE001B9B2B2184602F002
:101E300012F9160A304602F007F9D0B202F004F99E
:101E4000304602F001F9D0B202F0FEF8A08902F0AB
:101E500002F9384602F0F8F8E8B202F0F5F80EE0C0
:101E6000012900D1B2B2184602F0F5F8100A02F0CA
:101E7000EBF8D0B202F0E8F8A08902F0ECF83846AE
:101E800002F0E2F8E8B202F0DFF80DE02946104671
:101E900001F0C6FF08E0B2B21146184602F0EAF8B7
:101EA000A089294602F0E6F802F0DCF84FF0D841AC
:101EB000A1F80280BDE8F081B40100202DE9F05FB7
:101EC0003220FEF79FFE0121002002F0D3F86420AB
:101ED000FEF798FEFD4CFEA0A18802F0D9FE48F264
:101EE00009052946A580FEA002F0D2FEA0884FF683
:101EF000FF7645F210574FF47F494FF6017A4FF6BF
:101F0000027BFF2801D3B0425CD14FF45A4002F06B
:101F1000A2F84FF0D8425088A0804FF45B4002F006
:101F20009AF8907806EA0020A0804FF45C4002F016
:101F300092F85088A1880843A080B0F5004F3ED0A9
:101F4000484602F088F8802002F07EF8504602F001
:101F500082F8092002F078F8584602F07CF8012057
:101F600002F072F84FF6807002F075F8802002F0EF
:101F70006BF84FF6817002F06EF8092002F064F8F9
:101F80004DF2022001F096FE80460146D8A002F0F4
:101F90007FFE06EA0820A0804DF2032001F08AFEB1
:101FA00006460146D7A002F073FEA188DAA03143AD
:101FB000A18002F06DFEA088802802D002E0A780F8
:101FC00000E0A5804FF02040D0F81C1121F00F0157
:101FD000C0F81C11D0F81C1121F47061C0F81C115C
:101FE000D0F81C1141F00301C0F81C11D0F81C11ED
:101FF00041F40071C0F81C11A188CDA002F048FE88
:10200000A088B8427ED155214FF4704002F032F8DA
:10201000AA214FF2010002F02DF852214FF20200E6
:1020200002F028F84FF2020001F044FE0146C4A07D
:1020300002F02EFE4FF203030821184602F01AF8B0
:102040004FF204040121204602F014F80D214FF450
:10205000304002F00FF80D214BF2010002F00AF8B7
:102060000D214BF2020002F005F84FF43645342101
:10207000284601F0FFFF3421681C01F0FBFF3421EA
:10208000A81C01F0F7FF4FF431460D21304601F056
:10209000F1FF771C0D21384601F0ECFF0D21B01C3B
:1020A00001F0E8FF4FF437483421404601F0E2FFE9
:1020B0004BF201793421484601F0DCFF34214BF228
:1020C000027001F0D7FF00214FF4324001F0D2FF3F
:1020D00000214BF2012001F0CDFF00214BF2022044
:1020E00001F0C8FF4FF4384A2421504601F0C2FFE6
:1020F0004BF6010B2421584601F0BCFF24214BF67E
:10210000020000E0FDE301F0B5FF01214FF43F4084
:1021100001F0B0FF0F214FF4334001F0ABFF0F216E
:102120004BF2013001F0A6FF0F214BF2023001F01B
:10213000A1FF34214FF4394001F09CFF34214BF6CC
:10214000011001F097FF34214BF6021001F092FFCD
:1021500008214FF4354001F08DFF08214BF201506A
:1021600001F088FF08214BF2025001F083FF0321A8
:102170004FF4424001F07EFF24214FF43A4001F039
:1021800079FF24214BF6012001F074FF24214BF646
:10219000022001F06FFF00214FF43C4001F06AFF84
:1021A00078214BF6014001F065FF00214BF602401B
:1021B00001F060FF00214FF43D4001F05BFF78210A
:1021C0004BF6015001F056FF00214BF6025001F092
:1021D00051FF00214FF43E4001F04CFF64214BF6CB
:1021E000016001F047FF00214FF4514001F042FF30
:1021F00033214DF2011001F03DFF00214DF202109C
:1022000001F038FF34214DF2031001F033FF0021BB
:102210004DF2041001F02EFF3A214DF2051001F0AD
:1022200029FF00214DF2061001F024FF4A214DF252
:10223000071001F01FFF00214DF2081001F01AFFF6
:102240005C214DF2091001F015FF00214DF20A103A
:1022500001F010FF81214DF20B1001F00BFF002166
:102260004DF20C1001F006FFA6214DF20D1001F009
:1022700001FF00214DF20E1001F0FCFEE5214DF2B0
:102280000F1001F0F7FE01214DF2101001F0F2FEE7
:1022900013214DF2111001F0EDFE01214DF212104B
:1022A00001F0E8FE54214DF2131001F0E3FE01218C
:1022B0004DF2141001F0DEFE82214DF2151001F0F6
:1022C000D9FE01214DF2161042E00000B4010020B9
:1022D000206C63646465762E69643A25780D0A0083
:1022E000204441542049443A25780D0A000000005A
:1022F0003D3D3D3D203078443230323A2025780D46
:102300000A0000003D3D3D3D203078443230333AF4
:102310002025780D0A0000003D3D3D3D206C6364A2
:102320006465762E69643A20307825780D0A0000BD
:10233000204C43442049443A25780D0A000000000F
:102340003078463030323D253034780A00000000C5
:1023500001F090FECA214DF2171001F08BFE022110
:102360004DF2181001F086FE00214DF2191001F017
:1023700081FE02214DF21A1001F07CFE01214DF286
:102380001B1001F077FE02214DF21C1001F072FECD
:1023900034214DF21D1001F06DFE02214DF21E1090
:1023A00001F068FE67214DF21F1001F063FE02216B
:1023B0004DF2201001F05EFE84214DF2211001F05B
:1023C00059FE02214DF2221001F054FEA4214DF2DB
:1023D000231001F04FFE02214DF2241001F04AFEBD
:1023E000B7214DF2251001F045FE02214DF22610D5
:1023F00001F040FECF214DF2271001F03BFE0221FB
:102400004DF2281001F036FEDE214DF2291001F0C8
:1024100031FE02214DF22A1001F02CFEF2214DF284
:102420002B1001F027FE02214DF22C1001F022FEAC
:10243000FE214DF22D1001F01DFE03214DF22E1054
:1024400001F018FE10214DF22F1001F013FE0321B0
:102450004DF2301001F00EFE33214DF2311001F03B
:1024600009FE03214DF2321001F004FE6D214DF200
:10247000331001F0FFFD00214FF4524001F0FAFD4E
:1024800033214DF2012001F0F5FD00214DF2022033
:1024900001F0F0FD34214DF2032001F0EBFD0021AD
:1024A0004DF2042001F0E6FD3A214DF2052001F045
:1024B000E1FD00214DF2062001F0DCFD4A214DF244
:1024C000072001F0D7FD00214DF2082001F0D2FDD8
:1024D0005C214DF2092001F0CDFD00214DF20A20D2
:1024E00001F0C8FD81214DF20B2001F0C3FD002158
:1024F0004DF20C2001F0BEFDA6214DF20D2001F0A1
:10250000B9FD00214DF20E2001F0B4FDE5214DF2A0
:102510000F2001F0AFFD01214DF2102001F0AAFDC6
:1025200013214DF2112001F0A5FD01214DF21220E1
:1025300001F0A0FD54214DF2132001F09BFD01217B
:102540004DF2142001F096FD82214DF2152001F08C
:1025500091FD01214DF2162001F08CFDCA214DF2B2
:10256000172001F087FD02214DF2182001F082FDB5
:1025700000214DF2192001F07DFD02214DF21A20BB
:1025800001F078FD01214DF21B2001F073FD0221C5
:102590004DF21C2001F06EFD34214DF21D2001F0A2
:1025A00069FD02214DF21E2001F064FD67214DF20C
:1025B0001F2001F05FFD02214DF2202001F05AFDA5
:1025C00084214DF2212001F055FD02214DF22220FF
:1025D00001F050FDA4214DF2232001F04BFD02211A
:1025E0004DF2242001F046FDB7214DF2252001F0E7
:1025F00041FD02214DF2262001F03CFDCF214DF29C
:10260000272001F037FD02214DF2282001F032FD94
:10261000DE214DF2292001F02DFD02214DF22A206C
:1026200001F028FDF2214DF22B2001F023FD0221C3
:102630004DF22C2001F01EFDFE214DF22D2001F067
:1026400019FD03214DF22E2001F014FD10214DF251
:102650002F2001F00FFD03214DF2302001F00AFD83
:1026600033214DF2312001F005FD03214DF23220DE
:1026700001F000FD6D214DF2332001F0FBFC002143
:102680004FF4534001F0F6FC33214DF2013001F0DC
:10269000F1FC00214DF2023001F0ECFC34214DF24E
:1026A000033001F0E7FC00214DF2043001F0E2FCC0
:1026B0003A214DF2053001F0DDFC00214DF20630EB
:1026C00001F0D8FC4A214DF2073001F0D3FC002183
:1026D0004DF2083001F0CEFC5C214DF2093001F0E2
:1026E000C9FC00214DF20A3001F0C4FC81214DF2F9
:1026F0000B3001F0BFFC00214DF20C3001F0BAFCB0
:10270000A6214DF20D3001F0B5FC00214DF20E3046
:1027100001F0B0FCE5214DF20F3001F0ABFC0121DE
:102720004DF2103001F0A6FC13214DF2113001F0F2
:10273000A1FC01214DF2123001F09CFC54214DF21C
:10274000133001F097FC01214DF2143001F092FC9E
:1027500082214DF2153001F08DFC01214DF2163031
:1027600001F088FCCA214DF2173001F083FC0221F0
:102770004DF2183001F07EFC00214DF2193001F0CD
:1027800079FC02214DF21A3001F074FC01214DF266
:102790001B3001F06FFC02214DF21C3001F06AFC8D
:1027A00034214DF21D3001F065FC02214DF21E3046
:1027B00001F060FC67214DF21F3001F05BFC02214B
:1027C0004DF2203001F056FC84214DF2213001F011
:1027D00051FC02214DF2223001F04CFCA4214DF2BB
:1027E000233001F047FC02214DF2243001F042FC7D
:1027F000B7214DF2253001F03DFC02214DF226308B
:1028000001F038FCCF214DF2273001F033FC0221DA
:102810004DF2283001F02EFCDE214DF2293001F07E
:1028200029FC02214DF22A3001F024FCF2214DF264
:102830002B3001F01FFC02214DF22C3001F01AFC6C
:10284000FE214DF22D3001F015FC03214DF22E300A
:1028500001F010FC10214DF22F3001F00BFC032190
:102860004DF2303001F006FC33214DF2313001F0F1
:1028700001FC03214DF2323001F0FCFB6D214DF2E1
:10288000333001F0F7FB00214FF4544001F0F2FB2C
:1028900033214DF2014001F0EDFB00214DF20240E9
:1028A00001F0E8FB34214DF2034001F0E3FB00218D
:1028B0004DF2044001F0DEFB3A214DF2054001F0FB
:1028C000D9FB00214DF2064001F0D4FB4A214DF224
:1028D000074001F0CFFB00214DF2084001F0CAFB98
:1028E0005C214DF2094001F0C5FB00214DF20A4088
:1028F00001F0C0FB81214DF20B4001F0BBFB002138
:1029000000E04BE34DF20C4001F0B4FBA6214DF288
:102910000D4001F0AFFB00214DF20E4001F0AAFB8B
:10292000E5214DF20F4001F0A5FB01214DF21040D1
:1029300001F0A0FB13214DF2114001F09BFB01219E
:102940004DF2124001F096FB54214DF2134001F07C
:1029500091FB01214DF2144001F08CFB82214DF2DC
:10296000154001F087FB01214DF2164001F082FB7A
:10297000CA214DF2174001F07DFB02214DF21840B3
:1029800001F078FB00214DF2194001F073FB0221A8
:102990004DF21A4001F06EFB01214DF21B4001F097
:1029A00069FB02214DF21C4001F064FB34214DF221
:1029B0001D4001F05FFB02214DF21E4001F05AFB69
:1029C00067214DF21F4001F055FB02214DF22040DE
:1029D00001F050FB84214DF2214001F04BFB02211C
:1029E0004DF2224001F046FBA4214DF2234001F0BC
:1029F00041FB02214DF2244001F03CFBB7214DF296
:102A0000254001F037FB02214DF2264001F032FB58
:102A1000CF214DF2274001F02DFB02214DF228403D
:102A200001F028FBDE214DF2294001F023FB0221B9
:102A30004DF22A4001F01EFBF2214DF22B4001F035
:102A400019FB02214DF22C4001F014FBFE214DF246
:102A50002D4001F00FFB03214DF22E4001F00AFB47
:102A600010214DF22F4001F005FB03214DF23040C3
:102A700001F000FB33214DF2314001F0FBFA03215C
:102A80004DF2324001F0F6FA6D214DF2334001F083
:102A9000F1FA00214FF4554001F0ECFA33214DF2E8
:102AA000015001F0E7FA00214DF2025001F0E2FA84
:102AB00034214DF2035001F0DDFA00214DF20450B3
:102AC00001F0D8FA3A214DF2055001F0D3FA002175
:102AD0004DF2065001F0CEFA4A214DF2075001F0B6
:102AE000C9FA00214DF2085001F0C4FA5C214DF200
:102AF000095001F0BFFA00214DF20A5001F0BAFA74
:102B000081214DF20B5001F0B5FA00214DF20C502D
:102B100001F0B0FAA6214DF20D5001F0ABFA002100
:102B20004DF20E5001F0A6FAE5214DF20F5001F0E2
:102B3000A1FA01214DF2105001F09CFA13214DF23F
:102B4000115001F097FA01214DF2125001F092FA62
:102B500054214DF2135001F08DFA01214DF2145021
:102B600001F088FA82214DF2155001F083FA01211B
:102B70004DF2165001F07EFACA214DF2175001F0C5
:102B800079FA02214DF2185001F074FA00214DF249
:102B9000195001F06FFA02214DF21A5001F06AFA51
:102BA00001214DF21B5001F065FA02214DF21C503B
:102BB00001F060FA34214DF21D5001F05BFA022160
:102BC0004DF21E5001F056FA67214DF21F5001F0F0
:102BD00051FA02214DF2205001F04CFA84214DF2BD
:102BE000215001F047FA02214DF2225001F042FA41
:102BF000A4214DF2235001F03DFA02214DF2245060
:102C000001F038FAB7214DF2255001F033FA0221D4
:102C10004DF2265001F02EFACF214DF2275001F04F
:102C200029FA02214DF2285001F024FADE214DF25A
:102C3000295001F01FFA02214DF22A5001F01AFA30
:102C4000F2214DF22B5001F015FA02214DF22C50D9
:102C500001F010FAFE214DF22D5001F00BFA032184
:102C60004DF22E5001F006FA10214DF22F5001F0D6
:102C700001FA03214DF2305001F0FCF933214DF2FD
:102C8000315001F0F7F903214DF2325001F0F2F921
:102C90006D214DF2335001F0EDF900214FF4564013
:102CA00001F0E8F933214DF2016001F0E3F9002170
:102CB0004DF2026001F0DEF934214DF2036001F0C3
:102CC000D9F900214DF2046001F0D4F93A214DF216
:102CD000056001F0CFF900214DF2066001F0CAF95C
:102CE0004A214DF2076001F0C5F900214DF208605C
:102CF00001F0C0F95C214DF2096001F0BBF900213F
:102D00004DF20A6001F0B6F981214DF20B6001F03D
:102D1000B1F900214DF20C6001F0ACF9A6214DF2A1
:102D20000D6001F0A7F900214DF20E6001F0A2F94B
:102D3000E5214DF20F6001F09DF901214DF2106087
:102D400001F098F913214DF2116001F093F901217E
:102D50004DF2126001F08EF954214DF2136001F032
:102D600089F901214DF2146001F084F982214DF2BC
:102D7000156001F07FF901214DF2166001F07AF93A
:102D8000CA214DF2176001F075F902214DF2186069
:102D900001F070F900214DF2196001F06BF9022188
:102DA0004DF21A6001F066F901214DF21B6001F04D
:102DB00061F902214DF21C6001F05CF934214DF201
:102DC0001D6001F057F902214DF21E6001F052F929
:102DD00067214DF21F6001F04DF902214DF2206094
:102DE00001F048F984214DF2216001F043F90221FC
:102DF0004DF2226001F03EF9A4214DF2236001F072
:102E000039F902214DF2246001F034F9B7214DF275
:102E1000256001F02FF902214DF2266001F02AF918
:102E2000CF214DF2276001F025F902214DF22860F3
:102E300001F020F9DE214DF2296001F01BF9022199
:102E40004DF22A6001F016F9F2214DF22B6001F0EB
:102E500011F902214DF22C6001F00CF9FE214DF226
:102E60002D6001F007F903214DF22E6001F002F907
:102E700010214DF22F6001F0FDF803214DF230607A
:102E800001F0F8F833214DF2316001F0F3F803213D
:102E90004DF2326001F0EEF86D214DF2336001F039
:102EA000E9F85521201F01F0E5F8AA21E01E01F004
:102EB000E1F85221A01E01F0DDF80821184601F0CA
:102EC000D9F80021204601F0D5F8CC21304601F098
:102ED000D1F80021384601F0CDF80521284601F04F
:102EE000C9F87021404601F0C5F87021484601F04C
:102EF000C1F80121504601F0BDF80321584601F008
:102F0000B9F803214BF6020001F0B4F803214BF6A7
:102F1000030001F0AFF802214FF43C4001F0AAF8A1
:102F200000214BF6014001F0A5F800214BF60240CC
:102F300001F0A0F8D0214FF4494001F09BF80221A4
:102F40004CF6011001F096F850214CF6021001F0F9
:102F500091F850214CF6031001F08CF850214CF6FA
:102F6000041001F087F84FF454530021184601F083
:102F700081F80021184601F07DF855214FF4685082
:102F800001F078F84FF4885001F065F8A02002F0C5
:102F900037F94FF4245001F05EF8FCE3A842FCD16D
:102FA000484601F058F8802001F04EF8504601F0F4
:102FB00052F8092001F048F8584601F04CF8012079
:102FC00001F042F84FF6807001F045F8802001F0E2
:102FD0003BF84FF6817001F03EF8092001F034F81B
:102FE0004FF6037001F037F8012001F02DF84CF294
:102FF000B40001F030F8502001F026F84CF289407E
:1030000001F029F8082001F01FF84CF2A302104645
:1030100001F021F8002001F017F84CF2825001F085
:103020001AF8A32001F010F84CF2905001F013F8B8
:10303000D62001F009F84CF2915001F00CF88720ED
:1030400001F002F84FF4584001F005F8732000F049
:10305000FBFF4DF6010000F0FEFF712000F0F4FFD1
:103060004FF4594000F0F7FF582000F0EDFFE12049
:1030700000F0F1FF092000F0E7FF102000F0E4FF6E
:10308000142000F0E1FF132000F0DEFF072000F025
:10309000DBFF242000F0D8FF132000F0D5FF132021
:1030A00000F0D2FF012000F0CFFF042000F0CCFFA1
:1030B000052000F0C9FF062000F0C6FF142000F034
:1030C000C3FF372000F0C0FF342000F0BDFF052013
:1030D00000F0BAFFE22000F0BEFF092000F0B4FFCC
:1030E000102000F0B1FF142000F0AEFF132000F01C
:1030F000ABFF072000F0A8FF242000F0A5FF13205D
:1031000000F0A2FF132000F09FFF012000F09CFFC1
:10311000042000F099FF052000F096FF062000F043
:1031200093FF142000F090FF372000F08DFF342033
:1031300000F08AFF052000F087FF4CF2811000F0BC
:103140008AFF662000F080FF4CF2A11000F083FFA0
:10315000082000F079FF104600F07DFF1B2000F0F2
:1031600073FF4CF2814000F076FF832000F06CFF8B
:103170004CF2925000F06FFF012000F065FF4CF21E
:10318000B15000F068FFA92000F05EFF4CF68060AF
:1031900000F061FF852000F057FF4CF6816000F0E1
:1031A0005AFF032000F050FF4CF6826000F053FFFE
:1031B000002000F049FF4CF6836000F04CFF8420B3
:1031C00000F042FF4CF6846000F045FF032000F061
:1031D0003BFF4CF6856000F03EFF002000F034FF1E
:1031E0004CF6866000F037FF832000F02DFF4CF690
:1031F000876000F030FF032000F026FF4CF6886067
:1032000000F029FF002000F01FFF4CF6896000F05D
:1032100022FF822000F018FF4CF68A6000F01BFFAE
:10322000032000F011FF4CF68B6000F014FF00202B
:1032300000F00AFF4CF6A06000F00DFF382000F00F
:1032400003FF4CF6A16000F006FF022000F0FCFE38
:103250004CF6A26000F0FFFE032000F0F5FE4CF6F5
:10326000A36000F0F8FE212000F0EEFE4CF6A46012
:1032700000F0F1FE002000F0E7FE4CF6A56000F043
:10328000EAFE002000F0E0FE4CF6A66000F0E3FE4F
:10329000002000F0D9FE4CF6A76000F0DCFE3820DC
:1032A00000F0D2FE4CF6A86000F0D5FE012000F040
:1032B000CBFE4CF6A96000F0CEFE032000F0C4FE69
:1032C0004CF6AA6000F0C7FE222000F0BDFE4CF6CE
:1032D000AB6000F0C0FE002000F0B6FE4CF6AC6023
:1032E00000F0B9FE002000F0AFFE4CF6AD6000F03B
:1032F000B2FE002000F0A8FE4CF6B06000F0ABFE7D
:10330000382000F0A1FE4CF6B16000F0A4FE0020D1
:1033100000F09AFE4CF6B26000F09DFE032000F033
:1033200093FE4CF6B36000F096FE232000F08CFE76
:103330004CF6B46000F08FFE002000F085FE4CF6E5
:10334000B56000F088FE002000F07EFE4CF6B6600E
:1033500000F081FE002000F077FE4CF6B76000F030
:103360007AFE302000F070FE4CF6B86000F073FE7C
:10337000002000F069FE4CF6B96000F06CFE0320FE
:1033800000F062FE4CF6BA6000F065FE242000F00A
:103390005BFE4CF6BB6000F05EFE002000F054FEC9
:1033A0004CF6BC6000F057FE002000F04DFE4CF6DD
:1033B000BD6000F050FE002000F046FE4CF6C060FC
:1033C00000F049FE302000F03FFE4CF6C16000F0F6
:1033D00042FE012000F038FE4CF6C26000F03BFED9
:1033E000032000F031FE4CF6C36000F034FE2520CF
:1033F00000F02AFE4CF6C46000F02DFE002000F024
:1034000023FE4CF6C56000F026FE002000F01CFEF6
:103410004CF6C66000F01FFE002000F015FE4CF6D2
:10342000C76000F018FE302000F00EFE4CF6C860B9
:1034300000F011FE022000F007FE4CF6C96000F01B
:103440000AFE032000F000FE4CF6CA6000F003FE06
:10345000262000F0F9FD4CF6CB6000F0FCFD0020CA
:1034600000F0F2FD4CF6CC6000F0F5FD002000F01D
:10347000EBFD4CF6CD6000F0EEFD002000F0E4FD29
:103480004CF6D06000F0E7FD302000F0DDFD4CF69A
:10349000D16000F0E0FD032000F0D6FD4CF6D260D4
:1034A00000F0D9FD032000F0CFFD4CF6D36000F012
:1034B000D2FD272000F0C8FD4CF6D46000F0CBFD13
:1034C000002000F0C1FD4CF6D56000F0C4FD0020E6
:1034D00000F0BAFD4CF6D66000F0BDFD002000F013
:1034E000B3FD4CF6D76000F0B6FD302000F0ACFD27
:1034F0004CF6D86000F0AFFD042000F0A5FD4CF6BE
:10350000D96000F0A8FD032000F09EFD4CF6DA60C3
:1035100000F0A1FD282000F097FD4CF6DB6000F0E4
:103520009AFD002000F090FD4CF6DC6000F093FD69
:10353000002000F089FD4CF6DD6000F08CFD0020DD
:1035400000F082FD4CF6C07000F085FD002000F018
:103550007BFD4CF6C17000F07EFD002000F074FD94
:103560004CF6C27000F077FD002000F06DFD4CF6C7
:10357000C37000F070FD002000F066FD4CF6C470D2
:1035800000F069FD002000F05FFD4CF6C57000F012
:1035900062FD002000F058FD4CF6C67000F05BFDA7
:1035A000002000F051FD4CF6C77000F054FD0020E3
:1035B00000F04AFD4CF6C87000F04DFD002000F010
:1035C00043FD4CF6C97000F046FD002000F03CFDC4
:1035D0004CF6D07000F03FFD002000F035FD4CF6B9
:1035E000C03000F038FD002000F02EFD4CF6C13058
:1035F00000F031FD002000F027FD4CF6C23000F055
:103600002AFD002000F020FD4CF6C33000F023FD21
:10361000002000F019FD4CF6C43000F01CFD042021
:1036200000F012FD4CF6C53000F015FD042000F04E
:103630000BFD4CF6C63000F00EFD042000F004FD3A
:103640004CF6C73000F007FD042000F0FDFC4CF6FE
:10365000C83000F000FD042000F0F6FC4CF6C93044
:1036600000F0F9FC042000F0EFFC4CF6CA3000F04A
:10367000F2FC002000F0E8FC4CF6CB3000F0EBFC54
:10368000002000F0E1FC4CF6CC3000F0E4FC00201F
:1036900000F0DAFC4CF6CD3000F0DDFC002000F04C
:1036A000D3FC4CF6CE3000F0D6FC002000F0CCFC71
:1036B0004CF6D03000F0CFFC002000F0C5FC4CF6FA
:1036C000D13000F0C8FC002000F0BEFC4CF6D23037
:1036D00000F0C1FC002000F0B7FC4CF6D33000F045
:1036E000BAFC002000F0B0FC4CF6D43000F0B3FC83
:1036F000002000F0A9FC4CF6D53000F0ACFC002016
:1037000000F0A2FC4CF6D63000F0A5FC002000F042
:103710009BFC4CF6D73000F09EFC002000F094FC9F
:103720004CF6D83000F097FC002000F08DFC4CF6F1
:10373000D93000F090FC042000F086FC4CF6DA3022
:1037400000F089FC042000F07FFC4CF6DB3000F038
:1037500082FC042000F078FC4CF6DC3000F07BFCAE
:10376000042000F071FC4CF6DD3000F074FC042005
:1037700000F06AFC4CF6DE3000F06DFC042000F036
:1037800063FC4CF6E03000F066FC002000F05CFCCE
:103790004CF6E13000E081E200F05DFC002000F03A
:1037A00053FC4CF6E23000F056FC002000F04CFCDC
:1037B0004CF6E33000F04FFC002000F045FC4CF6E6
:1037C000E43000F048FC002000F03EFC4CF6E53010
:1037D00000F041FC002000F037FC4CF6E63000F031
:1037E0003AFC002000F030FC4CF6E73000F033FCEF
:1037F000002000F029FC4CF6E83000F02CFC002002
:1038000000F022FC4CF6E93000F025FC002000F02E
:103810001BFC4CF6804000F01EFC002000F014FC65
:103820004CF6814000F017FC002000F00DFC4CF637
:10383000824000F010FC002000F006FC4CF68340B3
:1038400000F009FC002000F0FFFB4CF6844000F083
:1038500002FC0C2000F0F8FB4CF6854000F0FBFB6E
:103860000A2000F0F1FB4CF6864000F0F4FB10203B
:1038700000F0EAFB4CF6874000F0EDFB0E2000F074
:10388000E3FB4CF6884000F0E6FB032000F0DCFB95
:103890004CF6894000F0DFFB042000F0D5FB4CF62D
:1038A000904000F0D8FB002000F0CEFB4CF6914099
:1038B00000F0D1FB002000F0C7FB4CF6924000F076
:1038C000CAFB002000F0C0FB4CF6934000F0C3FBA5
:1038D000002000F0B9FB4CF6944000F0BCFB002047
:1038E00000F0B2FB4CF6954000F0B5FB002000F074
:1038F000ABFB4CF6964000F0AEFB002000F0A4FBC2
:103900004CF6974000F0A7FB002000F09DFB4CF622
:10391000984000F0A0FB002000F096FB4CF6994088
:1039200000F099FB002000F08FFB4CF69A4000F06D
:1039300092FB002000F088FB4CF69B4000F08BFBD4
:10394000002000F081FB4CF69C4000F084FB00203E
:1039500000F07AFB4CF69D4000F07DFB002000F06B
:1039600073FB4CF69E4000F076FB0B2000F06CFBE6
:103970004CF6A04000F06FFB092000F065FB4CF610
:10398000A14000F068FB0F2000F05EFB4CF6A24067
:1039900000F061FB0D2000F057FB4CF6A34000F057
:1039A0005AFB012000F050FB4CF6A44000F053FB02
:1039B000022000F049FB4CF6A54000F04CFB002033
:1039C00000F042FB4CF6A64000F045FB002000F062
:1039D0003BFB4CF6A74000F03EFB002000F034FB20
:1039E0004CF6A84000F037FB002000F02DFB4CF611
:1039F000A94000F030FB002000F026FB4CF6AA4066
:103A000000F029FB002000F01FFB4CF6AB4000F05B
:103A100022FB002000F018FB4CF6AC4000F01BFB32
:103A2000002000F011FB4CF6AD4000F014FB00202C
:103A300000F00AFB4CF6AE4000F00DFB002000F059
:103A400003FB4CF6B04000F006FB002000F0FCFA4F
:103A50004CF6B14000F0FFFA002000F0F5FA4CF609
:103A6000B24000F0F8FA002000F0EEFA4CF6B34055
:103A700000F0F1FA002000F0E7FA4CF6B44000F054
:103A8000EAFA0D2000F0E0FA4CF6B54000F0E3FA57
:103A90000F2000F0D9FA4CF6B64000F0DCFA09200D
:103AA00000F0D2FA4CF6B74000F0D5FA0B2000F047
:103AB000CBFA4CF6B84000F0CEFA022000F0C4FA7F
:103AC0004CF6B94000F0C7FA012000F0BDFA4CF600
:103AD000C04000F0C0FA002000F0B6FA4CF6C14039
:103AE00000F0B9FA002000F0AFFA4CF6C24000F046
:103AF000B2FA002000F0A8FA4CF6C34000F0ABFA8E
:103B0000002000F0A1FA4CF6C44000F0A4FA002016
:103B100000F09AFA4CF6C54000F09DFA002000F043
:103B200093FA4CF6C64000F096FA002000F08CFAAA
:103B30004CF6C74000F08FFA002000F085FA4CF6F2
:103B4000C84000F088FA002000F07EFA4CF6C94028
:103B500000F081FA002000F077FA4CF6CA4000F03D
:103B60007AFA002000F070FA4CF6CB4000F073FABD
:103B7000002000F069FA4CF6CC4000F06CFA00200E
:103B800000F062FA4CF6CD4000F065FA002000F03B
:103B90005BFA4CF6CE4000F05EFA0E2000F054FACC
:103BA0004CF6D04000F057FA102000F04DFA4CF6D9
:103BB000D14000F050FA0A2000F046FA4CF6D2400C
:103BC00000F049FA0C2000F03FFA4CF6D34000F028
:103BD00042FA042000F038FA4CF6D44000F03BFAE8
:103BE000032000F031FA4CF6D54000F034FA002002
:103BF00000F02AFA4CF6D64000F02DFA002000F032
:103C000023FA4CF6D74000F026FA002000F01CFA08
:103C10004CF6D84000F01FFA002000F015FA4CF6E0
:103C2000D94000F018FA002000F00EFA4CF6DA4005
:103C300000F011FA002000F007FA4CF6DB4000F02B
:103C40000AFA002000F000FA4CF6DC4000F003FA1B
:103C5000002000F0F9F94CF6DD4000F0FCF90020FE
:103C600000F0F2F94CF6DE4000F0F5F9002000F02B
:103C7000EBF94FF4685000F0EEF9552000F0E4F94C
:103C80004FF4885000F0E7F97820FCF7BBFF4FF4C1
:103C9000245000F0E0F93220FCF7B4FF0120FEF7D9
:103CA0001FF80020FEF704F8BDE8F05F4FF47A70CB
:103CB000FCF7A8BF10B500F0CEF9142001F0A0FA6F
:103CC0004FF0D840408810BDF0B5544C0026024655
:103CD000A18845F21053304648F20905994201D0B7
:103CE000A9426FD1082A12D2DFE802F011040608B7
:103CF0000A0C0E1080260AE0402608E0C02606E0E6
:103D0000202604E0602602E0A02600E0E02699429A
:103D100001D0A94201D14FF45850314600F0AAF920
:103D2000B0062088618802D5884202D303E0884229
:103D300001D921806080A088984201D0A84242D158
:103D4000608900F088F9002000F07EF96089401C4D
:103D500080B200F080F9002000F076F96089801CC4
:103D600080B200F078F92088401EC0F30F2000F0E8
:103D70006BF96089C01C80B200F06DF92078401E9C
:103D8000C0B200F061F9A08900F065F9002000F0F0
:103D90005BF9A089401C80B200F05DF9002000F0C2
:103DA00053F9A089801C80B200F055F96088401E4C
:103DB000C0F30F2000F048F9A089C01C80B200F0C9
:103DC0004AF923E029E0608900F045F9002000F07D
:103DD0003BF9002000F038F92088401EC0F30F2086
:103DE00000F032F92078401EC0B200F02DF9A08911
:103DF00000F031F9002000F027F9002000F024F94C
:103E00006088401EC0F30F2000F01EF9A078BDE8C6
:103E1000F040401EC0B200F017B9F0BDB401002060
:103E20002DE9F0413D4A0C46060A91880546A1F568
:103E300000434FEA1428093B4BD14FF4285000F0BF
:103E40000AF9304600F000F942F6012000F003F9CB
:103E5000E8B200F0F9F842F6022000F0FCF8108811
:103E6000401EC0F30F2000F0EFF842F6032000F0F0
:103E7000F2F81078401EC0B200F0E6F84FF4305768
:103E8000384600F0E8F8384600F0E5F84FF42C50DA
:103E900000F0E1F8404600F0D7F842F6013000F0BB
:103EA000DAF8E0B200F0D0F842F6023000F0D3F8D1
:103EB0005088000A00F0C8F842F6033000F0CBF852
:103EC000907800F0C1F8384600F0C5F8384600F0A8
:103ED000C2F89088A0F5AA4110391DD1508900F090
:103EE000BAF8304600F0B0F85089401C80B200F0BB
:103EF000B2F8E8B200F0A8F8908900F0ACF84046BB
:103F000000F0A2F89089401C80B200F0A4F8E0B262
:103F1000BDE8F04100F098B8BDE8F081B4010020A0
:103F20002DE9FF4F1D460C468A46580700D0012058
:103F300000EBD500690810FB01F0203A00F0FF0902
:103F4000D0B20026DFF898B0029044E00C2D11D0DA
:103F5000102D14D0182D40D10298224900EBC0003A
:103F600001EB80004FF00008875D38060CD51E4835
:103F700002880DE002981D4900EB4000F0E71C4963
:103F8000029801EB0010EDE70D9828B91648428819
:103F900021460098FDF7FCFE7806070E641CBBF86E
:103FA0000200A4B2A04218D9A4EB0A00A84209D189
:103FB00000985446401C80B20090BBF8001081422B
:103FC0000BD906E008F1010000F0FF08B8F1080F76
:103FD000CBD3761CF6B24E45B8D3BDE8FF8F0000B8
:103FE000B4010020F2390C08220000208E2F0C08AA
:103FF00002340C082DE9F84F044600F0FF091019AF
:104000000D46DDE90AB61FFA80F8581987B24FF05D
:10401000000A12E0444503D305EB0B004C4685B281
:10402000BD420FD25B4629462046CDF800A0FFF7DF
:1040300077FF04EB5B0084B2761C3278A2F120009B
:104040005E28E7D9BDE8F88F08B5002100914FF050
:10405000D841488008BD08B5002100914FF0D841F3
:10406000088008BD02484FF0D84100890880704799
:10407000B40100204FF0D8421080518070470000FA
:10408000324E02E00A2001F069F930780028F9D0B8
:104090002F4C012211462046FCF71DFFDFF8B4A08B
:1040A0004FF40049012249465046FCF714FF002511
:1040B0004FF483774FF41678A34674881CB1BC4242
:1040C0000ED23C4611E0012211465846FCF703FF90
:1040D000012249465046FCF7FEFE00251E2026E040
:1040E000B4F5037F01D340F20B244FF4D270A4F552
:1040F000837440F205124443B4FBF2F0C0F516702D
:104100004146B42801D2B42002E0884200D940469A
:10411000C0F34E0475B1012211465846FCF7DBFE90
:10412000012249465046FCF7D6FE0025204601F004
:1041300015F9C2E7002201215846FCF7CCFE002207
:1041400049465046FCF7C7FE0125EFE70000002076
:10415000000802400004024010B5B6B0284A002111
:10416000284801F0B7FA284C00221146E0600120EF
:1041700001F082F922496060242224316846FCF76C
:10418000B0F86A460021214801F0A4FA1C49242213
:10419000483109A8FCF7A5F809AA00211C4801F03C
:1041A00099FA174924226C3112A8FCF79AF812AA3E
:1041B0000021184801F08EFA1149242290311BA8E1
:1041C000FCF78FF81BAA0021134801F083FA0C4971
:1041D0002422B43124A8FCF784F824AA00210F4833
:1041E00001F078FA06492422D8312DA8FCF779F895
:1041F0002DAA00210A4801F06DFAA06036B010BD6A
:10420000642D0C088945000800000020014C0008BE
:1042100069490008AD03000881400008094500080D
:10422000BD44000800B587B01C216846FCF772F851
:1042300016484FF0204110220160154941600621C7
:1042400081600021C160C0E904128161C161130273
:104250000162C0E90913C162016341638163416482
:104260000F20FF230090CDE90103CDE903021120C7
:10427000CDE90501002269460448FDF7AFF90028A1
:1042800001D0FCF75CFA07B000BD0000BC000020C4
:10429000040100A02DE9F04786B014216846FCF720
:1042A00039F84F480024016841F04001016001687D
:1042B00001F040010591016841F0080101600168C9
:1042C00001F008010591016841F480710160016805
:1042D00001F480710591016841F0010101600168FC
:1042E00001F001010591016841F0200101600168C0
:1042F00001F020010591016841F080010160016831
:1043000001F080010591016841F00401016001683C
:1043100001F004010591016841F01001016001689C
:1043200001F010010591016841F00201016000688F
:10433000DFF8B08000F002000590002240214046E6
:10434000FCF7C9FDDFF8A090002201214846FCF7E8
:10435000C2FDDFF898A04FF40047002239465046CE
:10436000FCF7B9FD224EB811CDE90006694602946A
:104370002048FCF7CFFC402000900125CDE90154F6
:10438000694640460394FCF7C5FC0095CDE901540D
:10439000694648460394FCF7BDFCE802CDE90006F7
:1043A000694602941448FCF7B5FC0097CDE9015426
:1043B000694650460394FCF7ADFC00220521172006
:1043C000FCF71AFE1720FCF709FE00220521282021
:1043D000FCF712FE2820FCF701FE06B0BDE8F087CE
:1043E0003038024000180240000802400004024039
:1043F00000001110002002400014024010B58CB0E3
:1044000000240794089409941C2168460A94FBF739
:1044100081FF1A48184901605321C0E9011444F68C
:104420002061C0E903148461FDF707F908B1FCF7C6
:1044300086F94FF48050079007A91048FDF73DF921
:1044400008B1FCF77CF90D48FDF7E9FA08B1FCF773
:1044500076F96020CDE900040294002269460748FD
:104460000494FDF774FA08B1FCF769F90348FDF705
:1044700043FA0CB010BD000000180040C401002039
:104480000C4810B50A4901604FF4E1314160002148
:1044900081600C22C160C0E904128161C161FDF735
:1044A00093FB002803D0BDE81040FCF748B910BDCD
:1044B000001001400C010020FEE700000F4E104DDF
:1044C0004FF0FF394FF0010800274A460021012034
:1044D00001F0A8F868780028F7D185F80180002459
:1044E00036F82400688006EB8400408800F036FF30
:1044F000641C1B2CF4D36F806F70E6E7602E0C08F1
:10450000000000207047000000211D48FDF7A4FABC
:104510001B4D40F2DC56286846631A4F4FF6FF7475
:104520004FF483784FF416794FF4166A788818B1EF
:10453000404503D2404606E0304617E0B0F5037F21
:1045400001D340F20B204FF4E162A0F5837040F2FA
:1045500005115043B0FBF1F000F51670484501D24B
:10456000484602E0504500D9504680B2A04202D0F1
:10457000296848630446142000F0F0FED6E70000E6
:10458000C401002000000020012000F0E7FEFBE74E
:1045900010B5502080F31188BFF34F8FBFF36F8F9A
:1045A00002F0B8FD18B104494FF0805008600020B7
:1045B00080F3118810BD000004ED00E030B593B029
:1045C00030216846FBF7A6FE14210CA8FBF7A2FEDB
:1045D0001A480025016841F080510160006800F030
:1045E000805011901648016841F4804101600068D4
:1045F000022400F4804011900120009000040190FA
:104600008001CDE90640192008904FF4A870CDE94B
:10461000090404200B906846FCF732FE0CA90F2019
:1046200081E831004FF4A0500F90E0021090052176
:104630000CA8FCF713FD13B030BD00004038024059
:10464000007000400548016841F4700101600349B1
:104650004FF00060803908607047000088ED00E08E
:104660000148FDF796B800004C010020F0B5026843
:10467000254C264D264E274F274B4FF0804CA0420D
:1046800009D0604507D0A84205D0B04203D0B84257
:1046900001D0984204D122F0700E4A6842EA0E021C
:1046A000A0421BD0604519D0A84217D0B04215D007
:1046B000B84213D0984211D0184DA8420ED0184DD0
:1046C000A8420BD0174DA84208D0174DA84205D0DC
:1046D000164DA84202D0164DA84203D122F44075CF
:1046E000CA682A434D6922F080022A4302608A6820
:1046F000C2620A688262A04201D0984201D109696F
:10470000016301214161F0BD00000140000400404F
:1047100000080040000C004000040140004001403F
:10472000004401400048014000180040001C0040C7
:104730000020004010B501F01F030121046A9940D8
:104740008C430462016A9A401143016210BD10B5A6
:10475000846842EA032224F47F440A4322438260AD
:1047600010BD826822F070020A4342F007018160A6
:1047700070470000F0B5026A22F001020262036A8B
:1047800042688469124E24F073050C682C4323F0B0
:1047900002058B682B430D4DA84201D0B04205D1D4
:1047A00023F00807CB683B4323F00403A84201D061
:1047B000B04205D14D6922F4407215438A692A43FB
:1047C00042608461496841630362F0BD00000140BA
:1047D00000040140F0B5026A22F010020262026A8F
:1047E000436884690D6824F4E64444EA05248D682E
:1047F00022F0200242EA05120F4D104EA84201D0CD
:10480000B04206D1CF6822F0800242EA071222F0BD
:104810004002A84201D0B04207D14D6923F4406361
:1048200043EA85038D6943EA8503436084614968EF
:1048300081630262F0BD00000000014000040140FD
:10484000F0B5026A22F480720262026A4368C469A7
:1048500022F4007224F073050C68124E2C438D680C
:1048600042EA05220E4DA84201D0B04206D1CF68DF
:1048700022F4006242EA072222F48062A84201D0B8
:10488000B04207D14D6923F4405343EA05138D69C3
:1048900043EA05134360C4614968C1630262F0BD25
:1048A000000001400004014030B5026A22F4805249
:1048B0000262046A4268C3690D6823F4E64343EA6E
:1048C00005238D6824F4005444EA0534084DA842B9
:1048D00002D0084DA84204D14D6922F4804242EA38
:1048E00085124260C36149680164046230BD000002
:1048F000000001400004014010B5036A046A24F07E
:1049000001040462846924F0F00444EA021423F0F0
:104910000A020A438461026210BD10B5036A23F0E3
:10492000100303628369046A23F4704343EA02328A
:1049300024F0A00343EA01118261016210BD00006E
:1049400010B5FBF769FF0649064A11F8240F927962
:1049500040F0800002F0010210430870002010BDFA
:104960008C010020B40100200E4D686818B14FF092
:10497000FF3100F045FDFFF7E3FF0B4C0026002060
:1049800000F014F8687848B9207D000605D5208825
:10499000618900F07BFC688000E06E800F2000F0F1
:1049A000DDFCECE7000000208C010020FCF702B8E1
:1049B00010B5806B0021C185C184FDF77AF810BD68
:1049C0000168CA6822F49072CA6001684A6922F0DC
:1049D00001024A61202180F83A10704710B590F822
:1049E0003A10222901D0022010BD8168B1F5805F04
:1049F00011D00169002901681FD0496801F07F03C7
:104A0000816A4A1C82620B70C18D491E0904090C1F
:104A1000C18518D02BE00269816A002A02685268B9
:104A200005D0D2B20A80816A491C8162ECE7C2F3E8
:104A300008020A80816A891CF7E74A68816A4B1C70
:104A400083620A70E0E70168CA6822F02002CA6047
:104A50000168CA6822F48072CA6001684A6922F05B
:104A600001024A61202180F83A10FDF71DF900206B
:104A700010BD00002DE9F041044600680169E268BC
:104A800021F44051114301612169A068E2690843A2
:104A90006169114308432168CA6849F20C639A436B
:104AA0000243CA6020684169A26921F44071114340
:104AB0004161E069192764253226B0F5004F354A77
:104AC000354920684FF0000806D0884201D0904256
:104AD00036D1FCF793FB35E0884201D0904202D1F9
:104AE000FCF78CFB01E0FCF779FB61684A18A0FB3E
:104AF000070148EB0803FBF7C3FB0146B0FBF5F0E9
:104B00000201B1FBF5F06FF01803584301EB800090
:104B100006EBC000B0FBF5F000F0F80002EB40023D
:104B2000B1FBF5F0584301EB800006EBC000B0FB91
:104B3000F5F000F00700216810448860BDE8F081BE
:104B4000FCF74CFB61688B0F8A00A0FB0701FBF7A9
:104B500097FB0146B0FBF5F06FF01802504301EBF4
:104B6000800006EB0010B0FBF5F000F0F002B1FBA6
:104B7000F5F002EB0012B1FBF5F06FF018035843AB
:104B800001EB800006EB0010B0FBF5F000F00F0029
:104B9000D1E70000001401400010014090F83910E6
:104BA000212901D0022070478168B1F5805F016A38
:104BB0000BD04A1C0262026809785160C18C491E00
:104BC0000904090CC1840ED017E009880268C1F3FA
:104BD0000801516001690029016A02D0491C016283
:104BE000ECE7891CFBE70168CA6822F08002CA6012
:104BF0000068C16841F04001C160002070470000BA
:104C00001CB5FDF75BF9174C606808B100F08CFC2F
:104C100001202070024601461348FCF75CF901228E
:104C2000D1031248FCF757F90020FDF741F810486E
:104C3000002100904FF4F0734FF448720846FDF7DE
:104C40006FF80CA11020CDE900010A2118234FF4C0
:104C500096720846FFF7CEF94FF47A74204600F0BA
:104C60007DFBFBE70000002000080240000402403A
:104C70005C7500085069616E6F205265616479004F
:104C80000148FCF717BF00000C010020FEE7000000
:104C90000FB4054B10B503A9044A029800F028F898
:104CA00010BC5DF814FB000035520008B80000206D
:104CB0000907090E002804DB00F1E02080F8001449
:104CC000704700F00F0000F1E02080F8141D7047DD
:104CD00002E008C8121F08C1002AFAD170477047C5
:104CE000002001E001C1121F002AFBD17047000023
:104CF0002DE9FF4F8DB00F460546002606E025281A
:104D00000BD0DDE90F1290476D1C761C2878002827
:104D1000F5D111B03046BDE8F08F0024A246A1467F
:104D20000122EC4900E0044315F8013F203B02FA60
:104D300003F00842F7D128782A2810D06FF02F020C
:104D40002878A0F13001092914D80AEB8A0102EB76
:104D5000410144F0020400EB010A6D1CF0E701CFB1
:104D60005FEA000A03D544F40054CAF1000A44F093
:104D700002046D1C28782E2817D115F8010F44F075
:104D800004042A280ED06FF02F022878A0F13001F9
:104D900009290AD809EB890102EB410100EB01095D
:104DA0006D1CF2E757F8049B6D1C28786C280FD017
:104DB00006DC4C2817D068280DD06A2814D104E0EE
:104DC000742810D07A280FD10DE044F400140AE0C2
:104DD00044F4801401E044F440146978814202D123
:104DE00004F580146D1C6D1C2A786E2A1FD00CDC13
:104DF000632A31D004DC002A8BD0582A11D1A3E0D9
:104E0000642A68D0692A0CD165E0732A2ED004DCAC
:104E10006F2A73D0702A04D19BE0752A6FD0782A4C
:104E20006ED01046DDE90F129047761C50E1C4F3B6
:104E30000250022806D0032809D0042801CF09D047
:104E4000066045E101CFF117C0E9006140E101CF03
:104E500006803DE106703BE117F8040B8DF8000079
:104E600000208DF80100EB46012003E057F804BB59
:104E70004FF0FF3061074FF0000102D40DE008F160
:104E80000101884649450FDA8045F8DB1BF8081018
:104E90000029F4D108E008F1010188468142FADBDB
:104EA0001BF808100029F6D1DDE90F23AAEB080052
:104EB0008146214600F036F9304400EB080604E054
:104EC000DDE90F121BF8010B9047B8F10108F7D28A
:104ED00021464846F7E00A21C4F302534FF0000B85
:104EE0000891022B04D001CFC117032B09D00AE08F
:104EF000FF1D27F00707F7E8020108E032E01FE096
:104F000020E000B2C117042B01D140B2C117031E2B
:104F100071F1000307DA4FF0000CD0EB0C006CEBE2
:104F200001012D2302E0230504D52B238DF8243025
:104F3000012303E0E30701D02023F7E7984658E078
:104F40000A2110E010210EE010204FF0000B089015
:104F50000CE010214FF0000B44F004044FF008095E
:104F6000089103E008214FF0000B0891C4F30253AD
:104F7000022B04D001CF0021032B06D006E0FF1D39
:104F800027F00707F7E8020103E080B2042B00D105
:104F9000C0B24FF0000823072BD5702A07D0DDF8E8
:104FA00020C08CF0100C5CEA0B0C05D00EE0402306
:104FB0008DF82430012308E050EA010306D03023A5
:104FC0008DF824308DF8252002239846DDF820C086
:104FD0008CF0080C5CEA0B0C0BD150EA010301D1F8
:104FE000630706D530238DF824304FF00108A9F16E
:104FF0000109582A04D038A20B9208AA0A920BE0A1
:105000003AA2F9E75B46089AFBF73AF90B9B9B5CDF
:105010000A9A521E0A92137050EA0102F2D10A98BB
:10502000ADEB000000F1200B600702D524F48034C2
:1050300001E04FF00109D94502DDA9EB0B0000E0CA
:10504000002000EB0B0141440890AAEB010AE003A9
:1050500006D4DDE90F232146504600F063F80644EC
:105060004FF0000908E009A911F80900DDE90F1265
:10507000904709F10109761CC145F4DBE0030CD52A
:10508000DDE90F232146504600F04CF8064404E0C9
:10509000DDE90F1230209047761C0899481E0890D1
:1050A0000029F5DC08E00A980A990078491C0A9161
:1050B000DDE90F129047761CBBF10001ABF1010B4B
:1050C000F1DC21465046DDE90F2300F019F80644D3
:1050D0006D1C1BE609280100303132333435363778
:1050E0003839616263646566000000003031323334
:1050F00034353637383941424344454600000000D4
:105100002DE9F041044600251E461746880404D4C4
:1051100005E039462020B0476D1C641EF9D52846AD
:10512000BDE8F0812DE9F041044600251E46904679
:10513000C80301D5302700E02027880404D505E006
:1051400041463846B0476D1C641EF9D52846BDE877
:10515000F08100002DE9F041154D0C4648B115498C
:10516000B1FBF0F660434FF47A71B0FBF1F7002425
:105170001AE0002240212846FBF7ADFE2046BDE89C
:10518000F041FBF73FBD012240212846FBF7A3FE7B
:10519000304600F011F8002240212846FBF79BFE24
:1051A000304600F009F8641CBC42ECD3BDE8F08145
:1051B0000018024020A107000549064A0968B1FB12
:1051C000F2F1414300E000BF491EFCD270470000ED
:1051D0003C000020808D5B000149086070470000A2
:1051E0002C00002070B5054600244FF47A7603E0C9
:1051F000304600F005F8641CAC42F9D370BD0000E5
:1052000070B54FF0E024002265690949A369096877
:105210004843A1699942FCD002D2A3EB010302E00A
:10522000A5EB010633441A440B468242F1D370BD0C
:105230002C00002003490A685206FCD5C2B24A601D
:105240007047000000100140FBF758FEFFF7B6F969
:10525000FFF720F8FFF714F9FEF7E4FFFFF7CEF8A9
:10526000012211460748FBF736FE0122D10306480A
:10527000FBF731FE00F08CF8FEF76EFF00F0A2F8AD
:10528000FEE700000008024000040240FCB550396F
:10529000F4292FD22FA36D46D3E90023CDE90023B3
:1052A00000223826AC5C2B2314FB03F306EB4303EC
:1052B000A3F11B07874219DC1B33834216DD072C41
:1052C00014D2DFE804F0130407130A0D100040F2B3
:1052D0001510FCBD40F23710FCBD4FF4B970FCBD99
:1052E00040F29F10FCBD4FF4E970FCBD521CD2B2DD
:1052F000052AD7D3B1F5A07F2AD24FF43A713828C6
:1053000026DB884224DA5621383890FBF1F0C0B20F
:1053100008281DD2DFE800F004070A0D1013161943
:105320004FF48370FCBD4FF49370FCBD4FF4A57037
:10533000FCBD40F25D10FCBD4FF4C470FCBD4FF4E9
:10534000DC70FCBD4FF4F770FCBD40F20B20FCBDDF
:105350000020FCBD010204050600000010B5EFF3BB
:10536000058179B9EFF3108111B9EFF3118119B10A
:1053700006490968022905D0002408B100F0B0FFF1
:10538000204610BD6FF00504FAE7000090000020F1
:10539000EFF3058068B9EFF310820949086812B984
:1053A000EFF311820AB1022803D028B14FF0FF3089
:1053B00070476FF0050070470120086000207047BB
:1053C0009000002010B5EFF3058070B9EFF3108264
:1053D0000A49086812B9EFF311820AB1022804D011
:1053E000012805D04FF0FF3010BD6FF0050010BD53
:1053F0000220086001F024F8002010BD9000002079
:10540000F8B50D460024211F4E1C002817D000BF00
:10541000EFF3058292B9EFF3108212B9EFF3118224
:105420001AB1134A1268022A08D0294601F01EFC5C
:1054300001280ED065B16FF001040AE00DB10C46F1
:1054400007E000216A46009101F0C2FB012802D06A
:1054500034462046F8BD00980028FAD005494FF0A0
:1054600080500860BFF34F8FBFF36F8FF1E70000EC
:105470009000002004ED00E0F8B5144603460E4607
:105480004FF00005EFF30580E8BBEFF3108010B993
:10549000EFF3118018B123480068022840D093B37D
:1054A0009E423DD84CB1A0680028E06803D0502847
:1054B00036D3012002E008B132E00020012B05D0F4
:1054C00010B31846A26801F0D0F820E040B10320E4
:1054D0000090002211460120A36801F00AF904E0BF
:1054E00003220021012001F0E0F8050018D086B168
:1054F00000231A46194601F073F9012809D02846FD
:1055000000F0A0FE00250BE0184601F091F8050020
:1055100006D00CB1216800E00021284600F07EFE94
:105520002846F8BD9000002038B50024E51E00286C
:1055300004D000BFEFF30581B9B902E06FF00304B6
:1055400011E0EFF3108111B9EFF3118119B1104996
:105550000968022909D000231A46194601F040F9CA
:10556000012800D02C46204638BD00210091694614
:1055700001F044FA0128F5D100980028F3D005493C
:105580004FF080500860BFF34F8FBFF36F8FEAE793
:105590009000002004ED00E03EB5040001D0002999
:1055A00003DA6FF0030001901AE04FF0FF30019032
:1055B000EFF30580B0B9EFF3108010B9EFF311806D
:1055C00018B11648006802280CD00023012220469A
:1055D00001F09AFC002201AB1146204601F094FC38
:1055E00001983EBD002502A800902B46012202959D
:1055F000204601F0F9FC002201AB1146204600953F
:1056000001F0F2FC02980028EAD005494FF08050E2
:105610000860BFF34F8FBFF36F8FE1E7900000206A
:1056200004ED00E02DE9F84F894605464FEA0206F1
:10563000EFF3058070B9EFF3108010B9EFF311802C
:1056400018B123480068022804D0002D05DA6FF055
:1056500003041CE06FF0050419E05FEA897002D5CD
:105660004FF0000800E0A8460024924601F04CFDEF
:105670008346E71E53466A464146002001F0AEFDD0
:10568000012807D00EB36FF001040028F2D12046A4
:10569000BDE8F88F00982C4004435FEAC9700BD036
:1056A00035EA0400F3D056B101F02EFDA0EB0B005B
:1056B000504506D9002006E02542E8D1F3E73C46F4
:1056C000E5E7AAEB00008246D4E73C46DDE70000B0
:1056D000900000202DE9FF414FEA01034FF0000543
:1056E000EFF30581039599BBEFF3108111B9EFF347
:1056F000118119B11F490968022938D040B38026A9
:10570000182100244AB3176807B13C4697691FB1B6
:1057100039467F1E382F02D21779FF0703D00020A9
:1057200004B0BDE8F081576907B1BE08D2F808C0DF
:10573000BCF1000F0DD0D5685C2D18D312693AB1B9
:1057400037B18DE806103246214601F0B2FB0390D6
:105750000DE0D7685FB912694AB903AACDE9001212
:10576000B2B2214601F078FB012800D003950398DE
:10577000D6E70000900000202DE9F041134C0F46C1
:10578000054666692068001D00F04EFC681C07D1C4
:1057900037B12168BDE8F0410D48091D00F094BC07
:1057A00020683544B5424560216805D2A068BDE84F
:1057B000F041091D00F070BC6068091D00F06CFC30
:1057C000206B854200D22563BDE8F08140000020B7
:1057D000F40600202DE9F041054600F081FC2D4C37
:1057E0002069401C206120682B4F10B1E06930B364
:1057F0002BE025602069012827D1002606EB8600D2
:1058000007EB800000F03AFC761C382EF6D32348D4
:1058100000F034FC2148143000F030FC1F482830E0
:1058200000F02CFC1D483C3000F028FC1B48503098
:1058300000F024FC194860601430A06005E0206886
:10584000E96AC06A884200D82560E06A401CE062CC
:105850006864E86AA169884200D9A06100EB800011
:1058600007EB8000291D00F02FFC00F059FCE069D7
:1058700000280CD02068E96AC06A884207D208492B
:105880004FF080500860BFF34F8FBFF36F8FBDE8BC
:10589000F08100004000002044020020A406002007
:1058A00004ED00E038B500F01BFC104CA068C8B94E
:1058B0000F4800F0E3FB0E48143000F0DFFB0C480B
:1058C0002060143060600A4B00202833009003F100
:1058D000500210210A2000F00CFFA06010B105A1B9
:1058E00000F09CFCBDE8384000F01ABC7C000020B1
:1058F00008070020546D72510000000030B4026CA3
:105900000B46002A0BD0C1681144C1608468A142D3
:1059100001D30168C16030BC1846FAF7E2BC30BC64
:1059200070472DE9F041856B174604460026026C4E
:1059300082B1C7B1E068FAF7D4FCE168206C091ABB
:10594000E1602268914202D2A168081AE060022F49
:1059500016D017E02068A8B9A06801F085FC0646BB
:105960000020A0600EE06068FAF7BBFC216C606864
:1059700008446060A168884204D32068606001E048
:1059800005B16D1E6D1CA5633046BDE8F08110B5F4
:10599000044690F8590058B101280CD002280FD0C5
:1059A000502080F31188BFF34F8FBFF36F8FFEE756
:1059B000206B00F0C9FB2046BDE8104000F0C4BBDE
:1059C00010BD000010484FF47051420706D0C01DB2
:1059D0000D4920F00700411AC1F570510B4A002310
:1059E0000144C2E900030839103A21F007011160AF
:1059F0004B600B600B1AC0E9001393604FF000403E
:105A00005360D06070470000D80E0020A400002032
:105A1000144E154CA6F29C474FF08058DFF84C907E
:105A200012E000BF00F05CFBF068C568281D00F0C4
:105A3000FBFA2069401E2061E068401EE06000F033
:105A40006FFB2846FFF7A3FFE0680028EAD138681B
:105A50000128F9D9C9F80080BFF34F8FBFF36F8FCA
:105A6000F2E70000E00600204000002004ED00E026
:105A700070B51D46049C51B1C4F80020C4E90F0163
:105A80000121204600F068FE84F84C5070BD24606F
:105A9000F4E700002DE9F05F8846DDE90B94154638
:105AA000834691009A460A9EA522206BFAF72BFCAA
:105AB0006FF00301206B01EB8501084420F007071C
:105AC000780707D0502080F31188BFF34F8FBFF3C2
:105AD0006F8FFEE70025B8F1000F0FD05FF00000D8
