:020000040800F2
:10000000584500205D020008EF230008E71F0008A4
:10001000ED230008A50A00084D2A00080000000092
:100020000000000000000000000000009D0100082A
:10003000590B000800000000F90100089D25000888
:1000400077020008770200087702000877020008AC
:10005000770200087702000877020008770200089C
:10006000770200087702000877020008770200088C
:10007000770200087702000877020008770200087C
:10008000770200087702000877020008770200086C
:10009000770200087702000877020008630B000867
:1000A000770200087702000877020008770200084C
:1000B000770200087702000877020008770200083C
:1000C000770200087702000877020008770200082C
:1000D000770200087702000877020008770200081C
:1000E0005B0B00087702000877020008770200081F
:1000F00077020008770200087702000877020008FC
:1001000077020008770200087702000877020008EB
:1001100077020008770200087702000877020008DB
:10012000A90A000877020008770200087702000891
:1001300077020008770200087702000877020008BB
:1001400077020008770200087702000877020008AB
:10015000770200087702000877020008770200089B
:10016000770200087702000877020008770200088B
:1001700077020008770200087702000800000000FC
:100180007702000877020008DFF80CD000F08AFB45
:1001900000480047CD330008584500202C4B196813
:1001A0000868B0E8F04F80F30988BFF36F8F4FF015
:1001B000000080F3118870470000000008480068C4
:1001C000006880F308884FF0000080F3148862B65E
:1001D00061B6BFF34F8FBFF36F8F00DF00BF00BF6B
:1001E00008ED00E0DFF80C00016841F470010160E7
:1001F000704700BF88ED00E0EFF30980BFF36F8F19
:10020000134B1A681EF0100F08BF20ED108A20E96A
:10021000F04F106009B44FF0500080F31188BFF325
:100220004F8FBFF36F8F03F007FD4FF0000080F397
:10023000118809BC19680868B0E8F04F1EF0100F6B
:1002400008BFB0EC108A80F30988BFF36F8F704746
:1002500034000020EFF30580704700000648804717
:1002600006480047FEE7FEE7FEE7FEE7FEE7FEE79B
:10027000FEE7FEE7FEE7FEE73D26000889010008ED
:100280002DE9F05F0546002092469B4688460646CB
:10029000814640241BE0284641464746224600F05E
:1002A00017F953465A46C01A914110D311461846C1
:1002B000224600F0FEF82D1A67EB01084F46224651
:1002C0000120002100F0F5F817EB00094E41201E37
:1002D000A4F10104DFDC484631462A464346BDE826
:1002E000F09F40EA01039B0703D009E008C9121FF1
:1002F00008C0042AFAD203E011F8013B00F8013BE0
:10030000521EF9D27047D2B201E000F8012B491E0B
:10031000FBD270470022F6E710B513460A460446A2
:100320001946FFF7F0FF204610BD2DE9FE4F81EA88
:10033000030404F0004421F0004100944FF0000B4E
:1003400023F0004350EA01045ED052EA03045BD07C
:10035000C3F30A54C1F30A552C44A4F2F3340194B4
:10036000A0FB0254C1F3130141F48011C3F3130342
:1003700043F4801301FB024400FB034E840A970AF6
:1003800044EA815447EA8357A4FB076802958D0A23
:1003900005FB07854FEA932C04FB0C542705029DAF
:1003A0004FEA065847EA1637B5EB08056EEB070C1F
:1003B000870E920E47EA811742EA8312A7FB0201D9
:1003C000B6EB0B0164EB00042B0D43EA0C335E1813
:1003D00044EB1C50DA465146E7FB0201C5F3130417
:1003E0004FEA0B3343EA14534FEA0432019C43EAC9
:1003F0000603A4F10C040294009CCDE900B400F0C3
:10040000BDF803B0BDE8F08F00200146F9E70EB556
:1004100040F2334102910021CDE900110A460B461A
:1004200000F0ACF803B000BD00F0004230F0004036
:100430000AD0C10D01F56071C0F3160042EA015106
:10044000C20840071143704700200146704701F081
:10045000004330B421F0004150EA010206D00A0DF9
:10046000A2F56072C1F31301002A02DC30BC002047
:100470007047440F44EAC104C100E01830BC00EBEF
:10048000C25000F035B830B50B460146002020229E
:10049000012409E021FA02F59D4205D303FA02F591
:1004A000491B04FA02F52844151EA2F10102F1DCF1
:1004B00030BD202A04DB203A00FA02F10020704708
:1004C0009140C2F1200320FA03F319439040704792
:1004D000202A04DB203A21FA02F00021704721FA99
:1004E00002F3D040C2F12002914008431946704700
:1004F0000029A8BF7047401C490008BF20F0010038
:10050000704710B4B0FA80FC00FA0CF050EA010415
:1005100004BF10BC704749B1CCF1200421FA04F4A7
:1005200011FA0CF118BF012121430843A3EB0C0180
:10053000CB1D4FEA00614FEA102042BF002010BCE3
:10054000704700EBC35010440029A4BF10BC704793
:10055000401C490008BF20F0010010BC704710B5D6
:10056000141E73F1000408DA401C41F100019218D6
:100570005B411A4301D120F0010010BD2DE9F04D7F
:1005800092469B4611B1B1FA81F202E0B0FA80F2D4
:1005900020329046FFF78DFF04460F4640EA0A00DE
:1005A00041EA0B0153465A46084313D0114653EA19
:1005B000010019D0C8F140025046FFF789FF0546F7
:1005C0000E46504659464246FFF773FF084305D092
:1005D000012004E020463946BDE8F08D00200543A7
:1005E00046EAE0762C4337430A986305E40AA0EB19
:1005F00008000022FD0A44EA47540A3002D50020D0
:100600000146E9E7010510196941DDE908450019CE
:100610006941BDE8F04DA2E72DE9FE4F804681EA31
:100620000300C00F0C46009021F0004123F000456C
:10063000B8EB0200A94105D24046214690461C462F
:100640000B46024623F00040104347D0270DC7F366
:100650000A00C3F30A510290401A019040286BDA55
:10066000C3F3130040F4801B0098924620B100238E
:10067000D2EB030A63EB0B0B01985946C0F1400221
:100680005046FFF716FF06460D4650465946019A5A
:1006900000F01AF910EB08006141002487EA1152BA
:1006A00084EAE7731A4340D0009A62B3019A012AA0
:1006B0004FEA075215DC001B61EB02014FF00042CC
:1006C00002EA0752CDE90042001C41F58011324692
:1006D0002B46FFF753FF03B0BDE8F08F404621469D
:1006E000F9E7001B61EB0201001C41F580130018C3
:1006F0005B412018A2F5001747EB030140EAD570D3
:10070000B6196D4111E06D084FEA360645EAC0752D
:100710004FEA0752001B61EB0201001C41F58011FA
:1007200049084FEA30000019514132462B4603B0C8
:10073000BDE8F04FFFF713BF0098012240000023EF
:10074000D0EB020263EBE073009821464FEAE074BD
:10075000B8EB000061EB0401E9E783F000435BE7DD
:1007600081F0004158E72DE9F04D81EA030404F0DF
:10077000004B21F0004514464FF0000A23F00041E1
:1007800050EA050220D054EA01021DD0C5F30A57F1
:100790000246C5F31303C1F31300C1F30A5640F434
:1007A000801543F48013A7EB0608101BD64608F209
:1007B000FD3873EB050002D308F1010801E092183F
:1007C0005B41B8F1000F03DA00200146BDE8F08D6F
:1007D00000204FF48011064684460EE0171B73EB91
:1007E000050705D3121B63EB050306434CEA010C16
:1007F00049084FEA300092185B4150EA0107EDD1F9
:1008000052EA030012D082EA040083EA0501084399
:1008100005D0101BAB4106D20122002306E00022C6
:100820004FF0004302E06FF0010253101AEB060094
:100830004CEB085110EB0A0041EB0B01BDE8F04D09
:10084000FFF78DBEC1F30A52C1F3130140F2FF332B
:1008500041F480119A4202DA00200146704740F2CA
:1008600033439A42A2F2334202DC5242FFF730BED7
:10087000FFF71FBE30B5041E71F1000404DB4FF01A
:100880000044404264EB0101141E73F1000405DBD7
:100890001C464FF00043524263EB0403994208BFE9
:1008A000904230BD064C074D06E0E06840F0010381
:1008B00094E8070098471034AC42F6D3FFF768FC81
:1008C000FC4100081C420008202A06DBCB17203A16
:1008D00041FA02F043EAE07306E041FA02F3D04045
:1008E000C2F12002914008431946704710B50146F5
:1008F000806B026C12F0500F05D0026CD20626D528
:1009000000F0DCF910BD016C41F400710164016874
:100910008A6812F0405F17D1027EAAB9CA6A12F43F
:10092000700F02D08A6852050ED44A6822F0200265
:100930004A60016C21F480710164016CC90403D424
:10094000016C41F00101016400F0B6F910BD806B4B
:10095000C26CBDE810400846104710B5806B4021BE
:100960000164416C41F00401416400F0A7F910BD3D
:1009700010B5806B00F0A1F910BD0000464910B51C
:100980004A6822F440324A604A6843681A434A601F
:1009900001684A6822F480724A6001684A68036903
:1009A00042EA03224A6001684A6822F040724A60C3
:1009B00001684A6883681A434A6001688A6822F4B9
:1009C00000628A6001688A68C3681A438A60816A23
:1009D0006FF07062D14201688A6822F070628A60AA
:1009E00001688A680CD0836A1A438A6001688A6841
:1009F00022F040528A6001688A68C36A1A4301E0A3
:100A000022F040528A6001688A6822F002028A60FD
:100A100001688A68037E42EA43028A6090F82010E7
:100A2000002901684A680FD042F400624A600168F8
:100A30004A6822F460424A6001684A68174C436A77
:100A400004EB43331A4301E022F400624A60016878
:100A5000CA6A22F47002CA620168CA6A838B104CA7
:100A600004EB03531A43CA6201688A6822F40072D5
:100A70008A6001688A6890F8303042EA43228A60CE
:100A800001688A6822F480628A6001688A68406925
:100A900042EA8020886010BD0023014000E0FFFF93
:100AA0000000F0FFFEE70000014800F019BA000066
:100AB000E000002001681823CAB2103AB2FBF3F23A
:100AC000054B6FF30901032A9B5CC36500D9091D1F
:100AD00081650846704700009441000810B5014642
:100AE00000208B698A6A4FF0C07453B1B3F5005F80
:100AF00015D072B1012A0CD0022A0AD0032A09D1DA
:100B000004E01AB1012A06D0022A03D1C96AC90138
:100B100000D5012010BDC96AA142FAD010BD002A3B
:100B2000F7D0012AF2D0022AF3D0032AF3D010BD65
:100B300030B50468256825F4802525600468636065
:100B40008368402B036803D099600068C26030BDA1
:100B50009A600068C16030BD70474FF4006000F0DB
:100B600061BB4FF4007000F05DBB704778B50024A6
:100B7000009490F83C20012A19D0012280F83C20F2
:100B80000A6807230568092A13D9EE680A3A02EBB6
:100B9000420293409E43EE600B788A680A3B03EB67
:100BA00043039A400368DD682A43DA6010E00220BC
:100BB00078BD2E6902EB420293409E432E610B7872
:100BC0008A6803EB43039A4003681D692A431A614C
:100BD0004A681F23072A13D205686E6B521E02EB68
:100BE000820293409E436E630B790A885B1E92B229
:100BF00003EB83039A4003685D6B2A435A6327E043
:100C000005680D2A12D22E6BD21F02EB820293408E
:100C10009E432E630B790A88DB1F92B203EB83039A
:100C20009A4003681D6B2A431A6311E0EE6A0D3A7D
:100C300002EB820293409E43EE620B790A880D3BE1
:100C400092B203EB83039A400368DD6A2A43DA62B7
:100C5000164B0568144A9D4206D10D68122D03D12A
:100C6000556845F48005556005689D4218D10B68AC
:100C7000102B01D0112B13D1536843F400035360A0
:100C8000096810290CD10A490A4A0968B1FBF2F136
:100C900001EB8101490000E0491E00910029FBD1D0
:100CA00080F83C40002078BD002301400020014036
:100CB0003000002040420F0070477047704770B509
:100CC00004004FF0000503D0206C002610B107E0AF
:100CD000012070BD204600F01DF8666484F83C6079
:100CE000206CC00610D4206C20F4885040F0020024
:100CF00020642046FFF742FE6664206C20F002006C
:100D000040F00100206400E0012584F83C602846A2
:100D100070BD000070B586B0064614216846FFF726
:100D2000F9FA1E493068884236D11D48002501680D
:100D300041F480610160006800F48060059018480B
:100D40001438016841F0200101600068694600F034
:100D5000200005904FF4707000900320CDE901054C
:100D6000104800F06BFA114C0F4820608005C4E970
:100D700001050014C4E90350400060618000A061D7
:100D80004011C4E907052046656200F079F908B111
:100D9000FFF7EBFEB463A66306B070BD002201400E
:100DA000443802400014024010640240E000002079
:100DB000F8B50E4600210446009190F83C00012849
:100DC00007D0012084F83C0020688368DB0702D04C
:100DD00011E00220F8BD836843F0010383603748C7
:100DE000374B0068B0FBF3F000EB400000E0401E22
:100DF00000900028FBD120688368DB075CD0236C5F
:100E000040F20165AB4343F48073236440684005BE
:100E100005D5206C20F4005040F480502064206CF4
:100E2000C00404D5606C20F00600606400E06164DA
:100E300084F83C10A16B2448224DC863A16B234861
:100E40000864A16B2248C86421686FF02200086022
:100E50002068416841F0806141602068816841F408
:100E6000807181602168134632464C31A06B00F0DE
:100E700071F968681749C006206806D088421BD1FE
:100E8000816811F0405F13D016E08842F8D0124A12
:100E9000904203D1D1F80423D206F1D00F4A9042F8
:100EA0000AD1D1F8041301F01F011029E8D303E09F
:100EB000816841F0804181600020F8BD3000002051
:100EC00040420F0000230140ED08000871090008AE
:100ED0005B09000800200140002101400022014080
:100EE0002DE9F84304464FF00009CDF8009063481F
:100EF0004FF41651A56D0068B0FBF1F72E6894F819
:100F00005C10082000FA01F131420FD021680A6814
:100F100052070BD50A6822F004020A6094F85C10AC
:100F20008840A860606D40F00100606594F85C1036
:100F30004FF0010808FA01F0304208D021684969F1
:100F4000090604D5A860606D40F00200606594F861
:100F50005C1004208840304208D021680968890765
:100F600004D5A860606D40F00400606594F85C10E2
:100F700010208840304218D021680968090714D52C
:100F8000A86020680168490304D50068000308D5FB
:100F9000A16C07E00168C90503D4016821F00801CC
:100FA0000160216C09B12046884794F85C1020202C
:100FB0008840304231D021680968C9062DD5A86023
:100FC00094F8350005282068016806D0490347D504
:100FD000006800031DD4616C1CE021F01601016063
:100FE0002068416921F080014161206C08B9A06C42
:100FF00020B12068016821F00801016094F85C10BC
:101000003F208840A86084F8349084F83580216DB2
:101010001FE0E16B09B120468847606D00282BD0A6
:10102000606DC00714D0052084F835002068016881
:1010300021F0010101600098401C0090B84203D8E3
:1010400020680068C007F6D184F8349084F83580B1
:10105000E16C002910D001B02046BDE8F0430847FC
:101060000168C905D5D4016821F01001016084F838
:10107000349084F83580CCE7BDE8F8833000002058
:101080002DE9F041044600F0BBF906465CB10025AD
:1010900084F83450022084F835002068016821F07B
:1010A000010101600DE00120BDE8F08100F0A8F928
:1010B000801B052805D920206065032084F83500B1
:1010C000F2E720680068C007F0D122681168204864
:1010D0000140D4E901031843D4E9033633431843EC
:1010E00063691843A3691843E3691843236A1843E3
:1010F0000843616A042903D1D4E90B131943084357
:10110000106020684069666A20F0070130460E438F
:10111000012704280CD1A06A0643E06A40B12046AA
:10112000FFF7DCFC20B14020606584F83570BAE739
:10113000206846612046FFF7BDFC94F85C203F2103
:1011400091408160656584F835700020ACE700004F
:101150003F8010F02DE9F0410446866D90F8340090
:10116000002501280DD0012084F8340094F8357052
:101170000020012F07D084F8340002252846BDE85E
:10118000F0810220FBE7022784F835706065204675
:10119000FFF7CEFC94F85C103F208840B0602068D8
:1011A000016841F016010160206C20B120680168DF
:1011B00041F0080101602068016841F0010101600F
:1011C000DCE7000070B5044600F01AF90546601C23
:1011D00002D004480078044400F012F9401BA042F9
:1011E000FAD370BD240000200849B0F5007F03D079
:1011F000B0F5006F03D004E00A68521C00E0002242
:101200000A600A68014602A001F022BC000000202A
:1012100050494E3A25642C666C6167203D20256458
:1012200000000000044910B50A68024202D00860BC
:10123000FFF7DAFF10BD0000143C01402DE9F84F24
:1012400000224FF0010803254FF00F0E0B6808FA3B
:1012500002F42340A3426ED14E68012E05D0022E27
:1012600003D0112E01D0122E12D186684FEA420C03
:1012700005FA0CF7BE43CF6807FA0CF737438760CF
:101280004668A6430C79C4F3001494403443446088
:10129000C668570005FA07FC8C6826EA0C06BC40B5
:1012A0003443C4604C68022C01D0122C13D1D408F2
:1012B00000EB8404A346D4F8209054074FEAD46A84
:1012C0000EFA0AF629EA06090E6906FA0AF646EA4D
:1012D0000906CBF8206006680C7926EA0C0604F0B3
:1012E0000304BC40344304604C68E40065D5364CCC
:1012F000266846F480462660246822F0030604F43B
:1013000080440094314C3444A446D4F808489607ED
:10131000370F0EFA07F6B4432D4EB04201D1002626
:1013200024E02C4EB04201D101261FE02A4EB042EB
:1013300002D102261AE040E0284EB04201D1032635
:1013400014E0274EB04201D104260FE0254EB042F2
:1013500001D105260AE0244EB04201D1062605E05F
:10136000224EB04201D1072600E00826BE402643A7
:10137000CCF808681E4E34684F689C43FF0300D5C4
:101380001C4334601A4C241D26684F689E43BF03DB
:1013900000D51E432660164E083634684F689C43BD
:1013A000FF0200D51C433460114E0C3634684F6880
:1013B0009C43BF0200D51C433460521C102AFFF42A
:1013C00045AFBDE8F88F00004438024000300140CE
:1013D000000002400004024000080240000C0240ED
:1013E000001002400014024000180240001C02409D
:1013F000003C01400AB1816170470904FBE700002D
:1014000001488068704700002400002070B5040087
:1014100025D094F83D00002520B984F83C502046A2
:1014200000F0B8F8242084F83D002068016821F01D
:10143000010101602068016841F4004101602068F9
:10144000016821F40041016000F010FA4D4A616822
:10145000914201D84C4900E04C49884201D2012018
:1014600070BD4B492368B0FBF1F15E6826F03F0682
:101470000E435E606368934206D94FF496735943F6
:101480004FF47A73B1FBF3F12368491C1E6A26F00E
:101490003F06314319626168914210D84900401EED
:1014A000B0FBF1F2521CC2F30B02042A01D2042059
:1014B00022E0B0FBF1F0401CC0F30B001CE0A2687E
:1014C000F2B301EBC10303EB0116431EB3FBF6F3CA
:1014D0005B1C43F480431B0549D092B301EBC1026E
:1014E00002EB0111401EB0FBF1F0401CC0F30B00F9
:1014F00040F4804040F400402168CA694CF6FF7314
:101500009A431043C861D4E9071001432068026878
:1015100022F0C00211430160D4E9030101432068B5
:10152000826848F2FF339A4311438160D4E9050190
:1015300008432168CA6822F0FF021043C86001E036
:101540000EE016E02068016841F0010101602564A9
:10155000202084F83D00256384F83E50002070BDB3
:1015600001EB4106431EB3FBF6F35B1CB3E701201E
:10157000C2E701EB4101401EB0FBF1F0401CC0F39B
:101580000B00B7E7A086010080841E0000093D0023
:1015900040420F0010B586B0044614216846FEF79D
:1015A000B9FE13492068884220D11248016841F0F1
:1015B000020101600068694600F002000590C02049
:1015C000009012200190012002900320039004203B
:1015D00004900948FFF732FE06481030016841F4D4
:1015E00000110160006800F40010059006B010BD05
:1015F0000054004030380240000402400248816834
:101600000278114481607047240000200B4810B517
:10161000016841F400710160016841F4806101607A
:10162000016841F480710160032000F073F80F201D
:1016300000F006F800F024F8002010BD003C024045
:1016400070B50D4D04464FF47A712878B1FBF0F077
:101650000A490968B1FBF0F000F008FB48B9102C0A
:1016600007D200222146501E00F034F800206C60A2
:1016700070BD012070BD000024000020300000205B
:101680000C4882B0016841F480410160006800F4B8
:10169000804000900748001F016841F080510160C0
:1016A0000068002200F0805000900F21901E02B0D0
:1016B00000F010B844380240002809DB00F01F0297
:1016C000012191404009800000F1E020C0F80011A4
:1016D00070470000F0B40E4B1B680C46C3F30223A6
:1016E000C3F10705042D00D90425191D072901D2CE
:1016F000002300E0DB1E012606FA05F1491E214009
:1017000099409E40761E16403143F0BC01F0B0B9BE
:101710000CED00E0064900F0070208684FF6FF03F1
:10172000184040EA0220034A104308607047000056
:101730000CED00E00000FA052DE9F0470E4605002B
:1017400065D0DFF81481D8F80000F7B200F00F0080
:10175000B04207D288F80070D8F8000000F00F00FF
:10176000B04254D128683D4C810712D5400703D5BB
:10177000206840F4E05020602878000703D52068F6
:1017800040F4604020602068A96820F0F000084321
:1017900020602878C0072DD03049686808390128B2
:1017A00012D0022813D0032811D009688907002914
:1017B0002DDA216821F0030101432160FFF720FEAB
:1017C000814641F2883A0EE009688903EFE709682B
:1017D0008901ECE7FFF714FEA0EB0901514502D99E
:1017E0000320BDE8F0872068696800F00C00B0EBCA
:1017F000810FEFD1D8F80010404601F00F01B1423F
:1018000007D90770006800F00F00B04201D0012036
:10181000E7E72878400705D52068E96820F4E0501C
:10182000084320602878000706D52068296920F43D
:10183000604040EAC100206000F038F82168084AA2
:10184000C1F30311515CC8400649086006480068AE
:10185000FFF7F6FE0020C4E7003C024008380240D3
:101860009C41000830000020280000200448054961
:1018700000680968044AC1F38221515CC84070477E
:101880003000002008380240AC41000804480549F7
:1018900000680968044AC1F34231515CC84070478E
:1018A0003000002008380240AC410008154810B54F
:1018B000006810F00C02144813D01449042A0FD009
:1018C000082A0ED10F4C241F2268236802F03F0221
:1018D0005B0207D52068C0F38810A0FB010106E079
:1018E000084610BD2168C1F38811A1FB0001002347
:1018F000FEF7C6FC2168C1F30141491C4900B0FB59
:10190000F1F010BD083802400024F40040787D0159
:101910002DE9F84F04006ED02078DFF83C93C00723
:10192000A9F104054AD009F104000168C1F381015D
:10193000012908D00068C0F3810002280AD1D9F833
:101940000000400206D52868800337D5606800286B
:10195000E1D033E06068B0F5803F10D0B0F5A02F43
:10196000286810D020F480302860286820F4802077
:1019700028606068A8B1FFF743FD06460DE02868BF
:1019800040F48030F4E740F480202860F7E700BF9F
:10199000FFF736FD801B642873D828688003F7D5CD
:1019A0000CE0FFF72DFD064605E000BFFFF728FD20
:1019B000801B6428F0D828688003F7D42078DFF8EB
:1019C0009C8280074FF0000A3ED5A348001D0168A5
:1019D00011F00C0F08D00068C0F3810002280BD171
:1019E000D9F80000400207D42868800716D5E068BF
:1019F000012800D112E02BE1E068B8B10120C8F85D
:101A00000000FFF7FDFC064605E000BFFFF7F8FC0D
:101A1000801B0228C0D828688007F7D5286821696C
:101A200020F0F80040EAC10028600DE0C8F800A0EE
:101A3000FFF7E6FC064604E0FFF7E2FC801B022805
:101A40001FD828688007F7D42078000722D5824E57
:101A500083486169703671B101210160FFF7D0FCE4
:101A6000074604E0FFF7CCFCC01B022809D8306809
:101A70008007F7D50EE0C0F800A0FFF7C1FC0746CD
:101A800005E082E0FFF7BCFCC01B02287DD830686F
:101A90008007F7D42078400768D5DFF8BCB100276D
:101AA0000BF13C0BDBF80000C0000BD4DBF800109E
:101AB00041F08051CBF80010DBF80000012700F066
:101AC00080500090674E3068C00510D4306840F4F4
:101AD00080703060FFF794FC009005E0FFF790FC09
:101AE0000099401A022850D83068C005F6D55A4EE1
:101AF000A0686C3601280FD00528306810D020F07F
:101B000001003060306820F004003060A068B8B197
:101B1000FFF776FC00900FE0306840F00100F4E73A
:101B200040F004003060F7E7FFF76AFC0099411AC3
:101B300041F28830814266D830688007F4D50EE0E3
:101B4000FFF75EFC009007E0FFF75AFC0099411A8E
:101B500041F28830814256D830688007F4D42FB1E2
:101B6000DBF8001021F08051CBF80010A069C8B359
:101B70003949091D0968C1F3810102294AD00228A7
:101B8000504607D0C8F8600000E03CE0FFF738FCA2
:101B900004463BE04746C8F86000FFF731FC0646C4
:101BA00005E000BFFFF72CFC801B02282BD828681B
:101BB0008001F7D4D4E907010843A16A2A4A4908F9
:101BC00002EB0141626A41EA8211084394F82C1049
:101BD00040EA0161C9F8001001203866FFF710FCE7
:101BE000044606E036E000BFFFF70AFC001B0228AF
:101BF00009D828688001F7D52CE000BFFFF700FC6A
:101C0000001B022802D90320BDE8F88F2868800154
:101C1000F4D41FE00128F7D0D9F80000E26900F4FD
:101C20008001914214D1226A00F03F0191420FD10C
:101C300047F6C071626A0140914209D1A26A00F47C
:101C40004031914204D1E16A00F07060884201D0D5
:101C50000120D9E70020D7E70438024000004742BE
:101C6000800E4742007000400000FFFF10B5401E8C
:101C7000B0F1807F01D3012010BD4FF0E0246061FE
:101C80000F21601700F0F4FE0020A0610720206102
:101C9000002010BD10B586B0044614216846FEF73A
:101CA00039FB0E492068884216D10D480021026890
:101CB00042F002020260006800F0020005904FF45A
:101CC000804000900220CDE901010920CDE90310F8
:101CD00069460448FFF7B2FA06B010BD001800408C
:101CE000303802400004024070B5044690F83C00D1
:101CF0000D4601280DD0012684F83C60022084F8AE
:101D00003D0042B1042A18D0082A2AD00C2A4DD10D
:101D100039E0022070BD206800F010FD2068816964
:101D200041F0080181612068816921F0040181612D
:101D3000206881692A69114311E0206800F02EFDB6
:101D40002068816941F4006181612068816921F422
:101D500080618161206881692A6941EA022181618B
:101D600024E0206800F050FD2068C16941F00801BE
:101D7000C1612068C16921F00401C1612068C169A5
:101D80002A69114311E0206800F072FD2068C169E2
:101D900041F40061C1612068C16921F48061C161C1
:101DA0002068C1692A6941EA0221C16184F83D6065
:101DB000002084F83C0070BD10B5040003D094F8F6
:101DC0003D0010B107E0012010BD002084F83C0068
:101DD000204600F00DF8022084F83D00211D206807
:101DE00000F03AFC012084F83D00002010BD000006
:101DF00008B500680649884208D10648016841F0E4
:101E000040010160006800F04000009008BD000043
:101E1000001800404038024010B504460068012216
:101E200000F07EFC0B492068884202D00A498842B3
:101E300003D1416C41F4004141642068816801F0A4
:101E40000701062903D0016841F00101016000206B
:101E500010BD0000000001400004014070B5040006
:101E600004D094F83900002510B106E0012070BDBF
:101E700084F83850204600F023F8242084F83900F4
:101E80002068C16821F40051C160204600F018FDAF
:101E90002068016921F4904101612068416921F0C5
:101EA0002A0141612068C16841F40051C160E563C5
:101EB000202084F8390084F83A00002070BD00002A
:101EC00010B586B0044614216846FEF723FA14497B
:101ED0002068884221D113480021026842F0100294
:101EE0000260006800F0100005900E481438026887
:101EF00042F001020260006800F0010005904FF41A
:101F0000C06000900220CDE901010320039007206A
:101F1000049069460448FFF791F906B010BD00002F
:101F20000010014044380240000002402DE9F8430F
:101F3000044690F839001F4616460D46202850D119
:101F4000B5B1AEB194F8380001284AD0012084F828
:101F500038004FF00008C4F83C80212084F8390094
:101F6000FFF74EFAA6848146E68484F8388026E09E
:101F70000120BDE8F883E08C401EE084A0684B4659
:101F8000B0F5805F4FF000024FF0800120460097CF
:101F900003D000F029FDE8B90DE000F025FDC8B937
:101FA00028882168C0F308004860206908B16D1CCA
:101FB00005E0AD1C03E0216815F8010B4860E08CDA
:101FC0000028D8D14B46002240212046009700F03F
:101FD0000BFD08B10320CCE7202084F83900002055
:101FE000C7E70220C5E7FEE70E4F0F4E4FF4FA7425
:101FF0004FF4806538684FF00102012829463046C9
:1020000002D0FFF7F7F9F5E7FFF7F4F9204601F002
:102010006DFA002229463046FFF7ECF9204601F020
:1020200065FAE7E700000020001402400D4E0E4C58
:102030004FF4004530684FF001020228294620463F
:1020400002D0FFF7D7F9F5E7FFF7D4F9FA2001F04E
:102050004DFA002229462046FFF7CCF9FA2001F07C
:1020600045FAE7E70000002000040240064D4FF467
:102070007A7428680328FCD104A000F0E9FC20460B
:10208000FFF7A0F8F5E70000000000206C6975611B
:102090006A6900007FB500212548009101910291F5
:1020A000224A0391026001244FF480320461C0E9A6
:1020B0000121047680F820101E4AC0E90A21042577
:1020C000C561C16080F830404461FEF7F8FD08B199
:1020D000FEF74BFDCDE900540524694614480294EF
:1020E000FEF744FD08B1FEF740FD0220CDE90040B7
:1020F00069460F48FEF73AFD08B1FEF736FD0620A7
:1021000000900320019069460948FEF72FFD08B1B1
:10211000FEF72BFD0720CDE9000569460448FEF7D0
:1021200025FD002801D0FEF720FD7FBD00220140E3
:10213000980000200100000F094808B5016841F42B
:10214000800101600068002200F4800000900521F9
:102150003820FFF7BFFABDE808403820FFF7ACBAD7
:102160003038024000B587B01C2206496846FEF7A9
:10217000B8F80021684601F0C5F90349086007B0C6
:1021800000BD000078410008200000202DE9F04F3C
:1021900087B014216846FEF7BDF856480024016850
:1021A00041F002010160016801F00201059101683E
:1021B00041F480710160016801F48071059101684A
:1021C00041F080010160016801F080010591016822
:1021D00041F001010160016801F001010591016810
:1021E00041F040010160016801F040010591016882
:1021F00041F020010160016801F0200105910168B2
:1022000041F0040101600068DFF8EC9000F0040088
:102210004FF400460590002231464846FFF7EAF8A1
:10222000DFF8D8A0002240215046FFF7E3F84FF432
:102230008068002241463248FFF7DCF8DFF8C4B07E
:10224000002201215846FFF7D5F8002231462E48DA
:10225000FFF7D0F82D4FB011CDE900076946029481
:102260002B48FEF7EBFF01250096CDE901546946A6
:1022700048460394FEF7E2FF40200090CDE9015468
:10228000694650460394FEF7D9FFCDF80080CDE9AA
:10229000015469461A480394FEF7D0FF0095CDE932
:1022A0000154694658460394FEF7C8FFE802CDE999
:1022B0000007694602941248FEF7C0FF0096CDE978
:1022C0000154694610480394FEF7B8FF0022052127
:1022D0001720FFF7FFF91720FFF7EEF9002205217D
:1022E0002820FFF7F7F92820FFF7E6F907B0BDE847
:1022F000F08F000030380240001C024000180240FD
:1023000000140240000802400004024000001110C6
:10231000002002400D4810B50B4901600C49416096
:1023200000214FF480428160C0E903124161816164
:10233000C1610162FFF76AF8002803D0BDE81040D0
:10234000FEF713BC10BD00000054004094030020B1
:10235000A086010010B588B01C216846FDF7DAFFA1
:1023600013481249002401605321C0E9011444F6C6
:102370002061C0E903148461FFF71EFD08B1FEF778
:10238000F4FB602000904FF47A70CDE90104002244
:10239000694607480494FFF7A7FC08B1FEF7E5FB80
:1023A0000348FFF777FC08B010BD0000001800409C
:1023B000E80300200C4810B50A4901604FF4E131F0
:1023C0004160002181600C22C160C0E9041281617A
:1023D000C161FFF743FD002803D0BDE81040FEF7C0
:1023E000C4BB10BD0010014028040020FEE7704768
:1023F000ACB0542229496846FDF773FF274954229F
:10240000543115A8FDF76DFF1520DFF894804FF0CB
:1024100000092A9023480168012909D0016803298D
:1024200006D04068012803D0322001F05FF8F1E7C0
:102430000024EA460DF1540B5AF824001A495BF8BF
:10244000247091FBF0F5FEF7DBFF064605EB8505F2
:1024500017E0012240214046FEF7CCFF484600E04D
:10246000401C2B90B0EB450FFADB00224021404688
:10247000FEF7C0FF484600E0401C2B90B0EB450F34
:10248000FADBFEF7BDFF801BB842E2D3142001F057
:102490002DF82A98641C8442CEDBBBE7D0400008AC
:1024A000001802400000002020A107002DED028B43
:1024B0002C4C84B020680428FCD12A4F1837388867
:1024C000FDF7A5FF9FED288B53EC182BFDF72DFF93
:1024D000FDF7BDFF0546A0607888FDF798FF53EC37
:1024E000182BFDF722FFFDF7B2FF0646E060B88823
:1024F000FDF78DFF53EC182BFDF717FFFDF7A7FF36
:102500002061F888FDF783FF53EC182BFDF70DFFD2
:10251000FDF79DFF60611648854201DB012000E068
:10252000002014498E4201DD012100E00021084312
:1025300000D0012060603046FDF776FF06460F466A
:102540002846FDF771FF41EC100B60680096CDE95D
:10255000017053EC102B08A000F07AFAC82000F0AC
:10256000C5FFA7E7000000206666666666664A3F0C
:10257000CDCC4C3F000020404761733A2566206C6B
:10258000696768743A256620416C61726D3A20254E
:1025900064200A00012000F0A9FFFBE710B5FFF757
:1025A0002DF801F05FFC012803D0BDE8104001F0D8
:1025B000EBBB10BD30B593B030216846FDF7AAFEE5
:1025C00014210CA8FDF7A6FE1A480025016841F069
:1025D00080510160006800F0805011901648016839
:1025E00041F4804101600068022400F480401190B1
:1025F00001200090000401908001CDE906401920DF
:1026000008904FF4A870CDE9090404200B906846A7
:10261000FFF77EF90CA90F2081E831004FF4A0509C
:102620000F90E002109005210CA8FFF785F813B079
:1026300030BD00004038024000700040054801688D
:1026400041F47001016003494FF000608039086077
:102650007047000088ED00E0F0B50268254C264D7B
:10266000264E274F274B4FF0804CA04209D06045A3
:1026700007D0A84205D0B04203D0B84201D098425A
:1026800004D122F0700E4A6842EA0E02A0421BD02A
:10269000604519D0A84217D0B04215D0B84213D027
:1026A000984211D0184DA8420ED0184DA8420BD018
:1026B000174DA84208D0174DA84205D0164DA84284
:1026C00002D0164DA84203D122F44075CA682A43AD
:1026D0004D6922F080022A4302608A68C2620A6859
:1026E0008262A04201D0984201D1096901630121AF
:1026F0004161F0BD000001400004004000080040BE
:10270000000C004000040140004001400044014032
:102710000048014000180040001C0040002000401C
:1027200010B501F01F030121046A99408C43046233
:10273000016A9A401143016210BD0000F0B5026ABF
:1027400022F001020262036A42688469124E24F098
:1027500073050C682C4323F002058B682B430D4D49
:10276000A84201D0B04205D123F00807CB683B4313
:1027700023F00403A84201D0B04205D14D6922F4F0
:10278000407215438A692A43426084614968416303
:102790000362F0BD0000014000040140F0B5026A90
:1027A00022F010020262026A436884690D6824F410
:1027B000E64444EA05248D6822F0200242EA05122C
:1027C0000F4D104EA84201D0B04206D1CF6822F082
:1027D000800242EA071222F04002A84201D0B04231
:1027E00007D14D6923F4406343EA85038D6943EAC9
:1027F000850343608461496881630262F0BD000023
:102800000000014000040140F0B5026A22F4807229
:102810000262026A4368C46922F4007224F07305FC
:102820000C68124E2C438D6842EA05220E4DA842D8
:1028300001D0B04206D1CF6822F4006242EA0722FA
:1028400022F48062A84201D0B04207D14D6923F43E
:10285000405343EA05138D6943EA05134360C4619D
:102860004968C1630262F0BD0000014000040140FC
:1028700030B5026A22F480520262046A4268C36977
:102880000D6823F4E64343EA05238D6824F40054DD
:1028900044EA0534084DA84202D0084DA84204D1AC
:1028A0004D6922F4804242EA85124260C361496860
:1028B0000164046230BD00000000014000040140DA
:1028C0002DE9F041044600680169E26821F44051B5
:1028D000114301612169A068E269084361691143FC
:1028E00008432168CA6849F20C639A430243CA60EC
:1028F00020684169A26921F4407111434161E06996
:10290000192764253226B0F5004F354A354920682D
:102910004FF0000806D0884201D0904236D1FEF731
:10292000B5FF35E0884201D0904202D1FEF7AEFFFC
:1029300001E0FEF79BFF61684A18A0FB070148EB26
:102940000803FDF79DFC0146B0FBF5F00201B1FB69
:10295000F5F06FF01803584301EB800006EBC00060
:10296000B0FBF5F000F0F80002EB4002B1FBF5F02F
:10297000584301EB800006EBC000B0FBF5F000F01F
:102980000700216810448860BDE8F081FEF76EFF03
:1029900061688B0F8A00A0FB0701FDF771FC0146FF
:1029A000B0FBF5F06FF01802504301EB800006EB2E
:1029B0000010B0FBF5F000F0F002B1FBF5F002EB17
:1029C0000012B1FBF5F06FF01803584301EB8000E3
:1029D00006EB0010B0FBF5F000F00F00D1E70000AF
:1029E00000140140001001402DE9F04198461746BF
:1029F0000E460446069D1DE0681C1BD02DB1FEF757
:102A0000FFFCA0EB0800A84214D92068C16821F49B
:102A1000D071C1602068416921F00101416120202D
:102A200084F8390084F83A00002084F83800032044
:102A3000BDE8F0812068006836EA000004D000207C
:102A4000B842D9D00020F3E70120F9E7FEE7000003
:102A50000FB4054B10B503A9044A029800F0EAF838
:102A600010BC5DF814FB0000AD330008940000209A
:102A70000907090E002804DB00F1E02080F80014AB
:102A8000704700F00F0000F1E02080F8141D70473F
:102A900002E008C8121F08C1002AFAD17047704727
:102AA000002001E001C1121F002AFBD17047000085
:102AB0002DE9FF5F82B00021DDE90430020DDDF871
:102AC00040B0034318D044F61050A2F2FF32424304
:102AD0001514119801281FD0A5EB0B00401C5FEACC
:102AE000000A4FF000064E4FDFF83891B0465046CE
:102AF00015D5CAF1000413E0119801244AA3012856
:102B000001D16FEA0B010298119AC0E90031C0E9C6
:102B1000024206B0BDE8F09FCBF10000DFE70446BB
:102B20000021404A491842EB0450CDE9001012E060
:102B3000E00707D032463B4640464946FDF7F5FBE5
:102B40008046894632463B4610461946FDF7EDFB66
:102B500006460F466410002CEAD1DDE90401DDE9E8
:102B60000023BAF1000F06DAFDF7DFFB42464B46C1
:102B7000FDF7DBFB05E0FDF7F6FD42464B46FDF7B2
:102B8000F2FD04460E460022284BFDF773FE03D8E3
:102B90004FF0FF30014607E00022254B204631462A
:102BA000FDF73AFDFDF74EFE102409E0002C0ADB8C
:102BB0000A220023FDF764FB039B30321A55641E82
:102BC00050EA0102F2D1641C039AC4F111031444C7
:102BD000119A012A03D0012208430DD10AE00843CB
:102BE00004D000204FF0110B119072E7A3EB0B05FE
:102BF0006D1E0DE05B4504DD4FF0000205F101059F
:102C000004E003DA4FF00002A5F10105002AECD040
:102C100002981199C0E90231C0E9004579E7000046
:102C2000000014400000F03F300000000000F043BE
:102C30000000E03F2DE9FF4F95B09B4689460646D0
:102C400000250FE2252877D100242746F84A0121E4
:102C5000059400E0044316F8013F203B01FA03F01D
:102C60001042F7D130782A2811D06FF02F03307836
:102C7000A0F13002092A16D8059A44F0020402EBAA
:102C8000820203EB42021044761C0590EFE759F8EC
:102C9000042B0592002A03DA504244F400540590B4
:102CA00044F00204761C30782E2816D116F8010F55
:102CB00044F004042A280DD06FF02F023078A0F1E0
:102CC0003003092B09D807EB870302EB4303C7182E
:102CD000761CF3E759F8047B761C30786C280FD00B
:102CE00006DC4C2817D068280DD06A2814D104E0DF
:102CF000742810D07A280FD10DE044F400140AE0B3
:102D000044F4801401E044F440147278824202D109
:102D100004F58014761C761C307866280BD013DC02
:102D2000582877D009DC002875D04528F6D04628E9
:102D3000F4D047281AD19DE118E0632835D06428E3
:102D400079D0652812D195E1702873D008DC672806
:102D5000F1D069286FD06E280DD06F2806D1B5E06C
:102D600073282CD0752875D0782874D05A461799B6
:102D700090476D1C75E1C4F30250022809D0032866
:102D80000DD0D9F8001004280DD00D6009F1040908
:102D900067E1D9F80010EA17C1E90052F6E7D9F85F
:102DA00000100D80F2E70D70F0E719F8041B8DF8A4
:102DB000001000208DF80100EA46012003E059F8D8
:102DC00004AB4FF0FF3061074FF0000102D40DE07B
:102DD00008F101018846B9420FDA8045F8DB1AF89C
:102DE00008100029F4D108E008F101018846814269
:102DF000FADB1AF808100029F6D105985B46A0EB1B
:102E0000080721463846179A00F094FA284400EB48
:102E1000080507E04DE029E10DE01AF8010B5A46DC
:102E200017999047B8F10108F7D25B46214638461A
:102E3000179A13E142E00A220092C4F302524FF0C3
:102E4000000A022A08D059F804CB032A4FEAEC7191
:102E50000AD00DE029E02AE009F1070121F007027C
:102E6000F2E802C1914609E00FFA8CFC4FEAEC71DE
:102E7000042A03D14FFA8CFC4FEAEC71002907DADF
:102E80000A460021DCF1000C61EB02012D2202E078
:102E9000220504D52B228DF80420012203E0E2074D
:102EA00001D02022F7E7904659E00A2102E01022E3
:102EB0000DE010214FF0000A00910BE010224FF0BE
:102EC000000A44F004040827009203E008224FF0AF
:102ED000000A0092C4F30252022A05D059F804CB2A
:102EE0000021032A08D009E009F1070121F00702B7
:102EF000F2E802C1914605E01FFA8CFC042A01D1D8
:102F00000CF0FF0C4FF00008220728D5702806D0DF
:102F1000009B83F0100353EA0A0305D00EE0402221
:102F20008DF80420012208E05CEA010206D030227C
:102F30008DF804208DF8050002229046009B83F056
:102F4000080353EA0A030AD15CEA010201D16207CD
:102F500005D530228DF804204FF001087F1E582837
:102F600004D034A003900EA802900DE036A0F9E73B
:102F700053466046009AFDF783F984460398825CC5
:102F80000298401E029002705CEA0100F0D10298A3
:102F900006A9081A00F1200A600702D524F480343B
:102FA00000E00127574502DDA7EB0A0000E0002002
:102FB00000EB0A01009005984144401A0590E00397
:102FC00006D45B462146179A059800F0B3F90544EC
:102FD000002706E001A85A46C05D179990476D1C6E
:102FE0007F1C4745F6DBE0030CD55B462146179A6C
:102FF000059800F09FF9054404E030205A461799DF
:1030000090476D1C0099481E00900029F5DC08E0EF
:10301000029802995A460078491C029117999047E4
:103020006D1CBAF10001AAF1010AF1DC65E10000B2
:10303000092801003031323334353637383961628E
:103040006364656600000000303132333435363752
:1030500038394142434445460000000000F058F929
:103060000544761C307800287FF4ECAD19B0284672
:10307000BDE8F08F620700D4062709F1070222F0AD
:10308000070CFCE80223E14603F000485FEA080C65
:1030900002D00FF2702C0DE05FEA045C02D50FF253
:1030A000682C07E05FEAC47C02D00FF2602C01E0DC
:1030B000AFF2700C4FF0FF3823F00043CDF850C052
:1030C00065280CD006DC452809D046281DD04728A5
:1030D0003DD13DE0662818D067287ED138E0002138
:1030E000112F01DB112000E0781CCDE9000106A9B9
:1030F0000EA8FFF7DDFCDDE90F010E9A0391002118
:10310000009207F1010A04914DE04FF00040009752
:10311000CDE9011006A90EA8FFF7CAFCDDE90F02F0
:1031200003920E9B11990022DDF80CA000930492EB
:1031300011B9791C00EB010AB7EB0A0004D4C0F105
:10314000FF3007F1010A0490AAEB0700019044E068
:10315000012F00DA01270021112F01DD112000E0ED
:103160003846CDE9000106A90EA8FFF7A1FCDDE96C
:103170000F010E9A0391002104910092BA46210793
:103180000CD40399514500DA8A46BAF1010F05DDE6
:10319000009AAAF10101515C302908D0B84202DA44
:1031A00010F1040F06DA0121CDE9011015E0AAF1B2
:1031B0000101E9E7002805DC049901440491AAEB28
:1031C000000102E0411C514500DD8A460499401A85
:1031D000401C01904FF000400290200704D4019859
:1031E000504501DBCDF8048000208DF84F00029897
:1031F0000DF14F07B0F1004F25D02B200E90029813
:103200004FF0020800280CDA404202902D200E9068
:1032100007E00A210298FDF736F93031029007F8ED
:10322000011DB8F10001A8F10108F2DC02980028A4
:10323000EFD1791E0E980870307800F0200040F031
:10324000450007F8020D12A8C01B00F107081498EA
:10325000007800B1012000EB0A01019801EBE07158
:1032600005984144401A401E0590E00306D45B4691
:103270002146179A059800F05DF8054414980078E7
:1032800018B15A46179990476D1CE00324D55B4648
:103290002146179A059800F04DF805441CE0049863
:1032A000002807DBDDE90301884203DD0098405C6C
:1032B000179901E0179930205A469047049805F174
:1032C0000105401C04900198401E019004D12E205D
:1032D0005A46179990476D1CBAF10001AAF1010AEC
:1032E000DDDC05E017F8010B5A46179990476D1C75
:1032F000B8F10001A8F10108F4DC5B462146179AF9
:103300000598ABE62D0000002B0000002000000017
:103310002DE9F041044600251E461746880404D4D2
:1033200005E039462020B0476D1C641EF9D52846BB
:10333000BDE8F0812DE9F041044600251E46904687
:10334000C80301D5302700E02027880404D505E014
:1033500041463846B0476D1C641EF9D52846BDE885
:10336000F0810000DFF83C900F4E4FF416684FF4E8
:10337000167700BFD9F800000228FBD13C4645462D
:1033800030684463012000F0B1F8641CAC42F7DB04
:1033900030684563012000F0A9F86D1EBD42F7DCDE
:1033A000E8E7000000000020E803002038B50446EC
:1033B000002000908DF800400A230122694602484F
:1033C000FEF7B4FD204638BD28040020B2B0FEF759
:1033D0001DF9FFF7EFF8FEF7D9FEFEF7ADFEFEF799
:1033E00059FEFEF797FFFEF7B5FFFEF7E3FF042255
:1033F00033493448FDF7DCFC00213348FEF70CFD6F
:103400000122D40321463148FDF7F4FF0122114681
:103410002F48FDF7EFFF012291022E48FDF7EAFF4A
:10342000012221462C48FDF7E5FF1C222B49684666
:10343000FCF757FF29491C221C3107A8FCF751FF54
:1034400026491C2238310EA8FCF74BFF23491C22C9
:10345000543115A8FCF745FF20491C2270311CA8E7
:10346000FCF73FFF1D491C228C3123A8FCF739FFD4
:103470001A491C22A8312AA8FCF733FF002168460C
:1034800000F040F8002107A800F03CF800210EA849
:1034900000F038F8002115A800F034F800211CA82D
:1034A00000F030F8002123A800F02CF800212AA811
:1034B00000F028F8FEF756FE00F01FF8FEE70000C7
:1034C0001800002098000020E803002000040240BB
:1034D0000008024000140240001C02400C4000089A
:1034E00001460020842900D0C81C704710B500B9DF
:1034F000012000F03DFB002010BD10B500F05EFB88
:10350000002010BD7FB50D4604464169B0F90800A2
:1035100081B1A16971B1FFF7E3FFD4E905128DE82C
:103520000700D4E900102B46226900F070FC0390DC
:1035300004B070BDFFF7D4FF03A9CDE90001208AD4
:103540002B4682B2D4E9001000F034FC012801D0EF
:103550000020EDE70398EBE72DE9F041184C0F460A
:10356000054666692068001D00F03EFA38B92068FB
:1035700090F82C1001208840A1698143A161681C4A
:1035800007D137B12168BDE8F0410E48091D00F0B0
:103590006FBA20683544B5424560216805D2A068FD
:1035A000BDE8F041091D00F04BBA6068091D00F04C
:1035B00047FA206B854200D22563BDE8F081000008
:1035C00034000020440500202DE9F041054600F0BC
:1035D0005BFA2E4C2069401C206120682C4F10B1F2
:1035E000E06940B32DE025602069012829D100263B
:1035F00006EB860007EB800000F014FA761C072E1D
:10360000F6D323488C3000F00DFA2148A03000F0AA
:1036100009FA1F48B43000F005FA1D48C83000F020
:1036200001FA1B48DC3000F0FDF919488C3060606D
:103630001430A06005E02068E96AC06A884200D8BA
:103640002560E06A401CE062E96A0120A2698840C6
:103650001043A06101EB810007EB8000291D00F001
:1036600007FA00F031FAE06900280CD02068E96A16
:10367000C06A884207D207494FF080500860BFF304
:103680004F8FBFF36F8FBDE8F08100003400002042
:103690006804002004ED00E010B5044690F85100E5
:1036A00058B101280CD002280FD0502080F3118887
:1036B000BFF34F8FBFF36F8FFEE7206B00F018FA58
:1036C0002046BDE8104000F013BA10BD10484FF47A
:1036D0007051420706D0C01D0D4920F00700411A65
:1036E000C1F570510B4A00230144C2E900030839B7
:1036F000103A21F0070111604B600B600B1AC0E912
:10370000001393604FF000405360D060704700009A
:103710005805002080000020144E154CA6F1C80763
:103720004FF08058DFF84C9012E000BF00F0ACF989
:10373000F068C568281D00F057F92069401E206117
:10374000E068401EE06000F0BFF92846FFF7A4FFE4
:10375000E0680028EAD138680128F9D9C9F8008062
:10376000BFF34F8FBFF36F8FF2E7000030050020EB
:103770003400002004ED00E02DE9F0479A46DDE931
:10378000098481466FF00303206B03EB820210442F
:10379000089E20F00707780707D0502080F3118893
:1037A000BFF34F8FBFF36F8FFEE7002561B100209D
:1037B00023180A5C83F834200A5C12B1401C1028DC
:1037C000F6D384F8435001E084F83450072E00D338
:1037D0000626E662C4E91165201D00F02EF904F109
:1037E000180000F02AF92461C6F107006462A061A4
:1037F000E56484F8505052464946384600F0BEF819
:103800002060B8F1000F01D0C8F80040BDE8F08793
:1038100030B5114900E011460A688242FBD34B687B
:103820005C18844203D140681844486008464368E5
:103830001C18944209D1084C103C2468A24209D0BB
:1038400052681A4442600A6812680260814200D0DD
:10385000086030BD0460F9E7800000200648416838
:10386000096829B14168C968C96849680163704736
:103870004FF0FF31FAE700003400002008484068AC
:10388000401C4FF0500080F3118804D0BFF34F8FDD
:10389000BFF36F8FFEE7BFF34F8FBFF36F8FFEE76E
:1038A000880000202DE9F0410546002700F0BCF912
:1038B000314E306808B9FFF709FFF06805424BD177
:1038C000C5B3083568070ED005F00700C0F1080041
:1038D0000544680707D0502080F31188BFF34F8F4D
:1038E000BFF36F8FFEE72DB37068854234D822484E
:1038F000103001460C6801E020460C466168A94280
:1039000002D221680029F7D131688C4224D007689F
:103910002168016060680837411B10290FD96019C0
:10392000420708D0502080F31188BFF34F8FBFF3B8
:103930006F8FFEE710E041606560FFF769FF616827
:103940007068401A7060B268904200D2B060F0684F
:1039500001430020C4E9000100F0F6FA780707D01F
:10396000502080F31188BFF34F8FBFF36F8FFEE7B6
:103970003846BDE8F08100007000002010B5031F3C
:103980004FF080741C601B1F21F001011960191F8A
:10399000044B0B6014390A60091F6FF002024438AF
:1039A0000A6010BD7D3800080C4C0D4DDFF83480E6
:1039B0004FF4FA764FF4004720680028FCD101222A
:1039C00011462846FDF716FD3046FFF78FFD012210
:1039D00039464046FDF70EFDEEE7000000000020EE
:1039E0000008024000040240D0E9013201699A60F7
:1039F000D0E901235A604A68824201D182684A6054
:103A0000002202610868401E0860086870470000D4
:103A1000034B036003F1540008608020106070477E
:103A20004001002000F108014FF0FF32C0E901120F
:103A3000C160016100210160704700210161704790
:103A400030B50B685A1C02D000F1080202E002698E
:103A500004E02246546825689D42FAD953684B60B9
:103A600099608A60516008610168491C016030BD3D
:103A700042684A6093688B609368596091600861FE
:103A80000168491C01607047502080F31188BFF322
:103A90004F8FBFF36F8F0A494868401C4860012868
:103AA0000CD10848006810F0FF0F07D0502080F3B9
:103AB0001188BFF34F8FBFF36F8FFEE77047000091
:103AC0008800002004ED00E00849486828B1401E45
:103AD000486001D180F311887047502080F311882D
:103AE000BFF34F8FBFF36F8FFEE700008800002009
:103AF00070B5002827D0144DA0F108046168E8686B
:103B0000014207D1502080F31188BFF34F8FBFF3DC
:103B10006F8FFEE722683AB1502080F31188BFF31F
:103B20004F8FBFF36F8FFEE78143616000F07CF839
:103B300060686968084468602046FFF769FEBDE870
:103B4000704000F001BA70BD700000204FF0E0201E
:103B500000210161816105494FF47A720968B1FB66
:103B6000F2F1491E416107210161704730000020D8
:103B700010B5020014D00F48806B38B1502080F38C
:103B80001188BFF34F8FBFF36F8FFEE700F04CF843
:103B900000211046FFF7E0FC00F0D6F9002807D11D
:103BA00005494FF080500860BFF34F8FBFF36F8F10
:103BB00010BD00003400002004ED00E010B586B018
:103BC0000024039405AA04A903A80494FFF720FF86
:103BD000DDE903010094CDE9011000230EA1104896
:103BE000059A00F014F90F490028486311D05020BD
:103BF00080F31188BFF34F8FBFF36F8F4FF0FF300B
:103C000008630120C8614C6106B0BDE8104000F0B7
:103C100041B806B010BD000049444C45000000000A
:103C200019370008340000200248816B491C816369
:103C300070470000340000201448816B11B101214D
:103C400041627047002141628169B1FA81F1C1F19D
:103C50001F0101EB81020E4951F822306BB101EBDB
:103C6000820101F108034A6852684A609A4201D110
:103C700052684A60D16801607047502080F3118813
:103C8000BFF34F8FBFF36F8FFEE7000034000020BB
:103C9000680400201CB537480168374A914207D1B3
:103CA000502080F31188BFF34F8FBFF36F8FFEE773
:103CB00000683149491E884207D1502080F311889D
:103CC000BFF34F8FBFF36F8FFEE72C490878019049
:103CD000FF20087008788DF800009DF800009DF81E
:103CE000002000F0F000904207D0502080F31188AF
:103CF000BFF34F8FBFF36F8FFEE79DF80000204B9F
:103D000000F0500018700720986005E09DF8002032
:103D100052008DF80020401E9DF800201206F5D4B8
:103D20009860032807D0502080F31188BFF34F8F8D
:103D3000BFF36F8FFEE74FF44070986001980870F2
:103D40000C482030016841F470010160016841F0C5
:103D500070410160FFF7FAFE00205860FCF742FA5C
:103D60000848016841F040410160FCF727FA002053
:103D70001CBD000000ED00E071C20F4100E400E056
:103D80008800002034EF00E010B5502080F3118847
:103D9000BFF34F8FBFF36F8F00F072F818B1044973
:103DA0004FF080500860002080F3118810BD0000A3
:103DB00004ED00E02DE9FF5F8346DDE90E879946BB
:103DC00016468A469000FFF76DFD05001CD0542072
:103DD000FFF768FD040014D00020256384F851002B
:103DE000CDE90240CDE900874B4632465146584660
:103DF000FFF7C2FC2046FFF7E7FB012004B0BDE857
:103E0000F09F2846FFF774FE4FF0FF30F6E7F0B55D
:103E100085B0DDE90B640A9DA6B1DCB1542700979B
:103E20002663022684F85160002604AFCDE90246DD
:103E3000CDE90057FFF7A0FC2046FFF7C5FB04982B
:103E400005B0F0BD502080F31188BFF34F8FBFF352
:103E50006F8FFEE7502080F31188BFF34F8FBFF3C1
:103E60006F8FFEE70548C16919B1806B18B100205A
:103E70007047012070470220704700003400002086
:103E80002DE9F0412E4C0027A06B40B1206A401C68
:103E90002062606A00B101273846BDE8F08166699A
:103EA000761C666113D16068006838B1502080F3D9
:103EB0001188BFF34F8FBFF36F8FFEE76068A16873
:103EC0006160A060A06A401CA062FFF7C7FC206B85
:103ED000DFF87080864209D36068006880B160684E
:103EE000C068C568686886420DD220632068C06AD1
:103EF00000EB800158F821000128CAD90127C8E742
:103F00004FF0FF30F1E7281DFFF76EFDA86A18B1EA
:103F100005F11800FFF768FDE86A0121A2698140F8
:103F20001143A16100EB800108EB8100291DFFF71F
:103F30009FFDE86A2168C96A8842CDD30127CBE793
:103F400034000020680400202DE9F0472C4D0024A7
:103F50002746A86B38B1FFF797FDA86B401EA863F2
:103F6000A86B40B146E0502080F31188BFF34F8F1B
:103F7000BFF36F8FFEE72969224E0120D1B3A6F16E
:103F8000B40980463068E8B1F068C46804F11800EC
:103F9000FFF72AFD201DFFF727FDE06AAA6908FA4E
:103FA00000F11143A96100EB800109EB8100211DA3
:103FB000FFF75EFDE06A2968C96A8842E2D3C5F866
:103FC0002480DFE70CB1FFF749FC2C6A44B1464678
:103FD000FFF756FF00B16E62641EF9D1002028621F
:103FE000686A38B10849012738070860BFF34F8F66
:103FF000BFF36F8FFFF768FD3846BDE8F08700001C
:10400000340000201C05002004ED00E0BC41000845
:104010002D200008000000000000000080000000CB
:104020000000000000000000B4410008E91F000883
:104030000000000000000000800000000000000000
:1040400000000000E0410008A9390008000000005D
:1040500000000000800000000000000000000000E0
:10406000D4410008AD24000800000000000000005A
:10407000800000000000000000000000E84100088F
:10408000F123000800000000000000008000000094
:104090000000000000000000CC410008653300086B
:1040A0000000000000000000800000000000000090
:1040B00000000000C44100086D200008000000005E
:1040C0000000000080000000000000000000000070
:1040D00006010000260100004A0100005D01000009
:1040E000880100008801000088010000260100000E
:1040F0004A0100005D01000088010000B8010000D5
:10410000B8010000B8010000880100004A01000069
:1041100026010000060100004A01000026010000FF
:1041200006010000960000009600000096000000C6
:10413000960000002C0100006400000064000000F4
:104140009600000096000000960000009600000017
:104150002C0100006400000064000000C8000000A2
:10416000960000009600000096000000C8000000C5
:10417000C800000090010000F041000895250008EB
:1041800000000000000000008000000000000000AF
:1041900000000000000610160006101600000000C7
:1041A00000000000010203040607080900000000E7
:1041B000010203044C656444320000004C65644411
:1041C000330000004C6F76650000000064756F6A74
:1041D0006900000053656E736F725461736B000069
:1041E00073746F70416C6C00506565720000000064
:1041F00064656661756C745461736B001C420008E1
:104200000000002098000000902A0008B442000836
:1042100098000020C0440000A02A00080000000010
:10422000000000000000000000000000000000008E
:10423000000000000000000000000000000000007E
:104240000100000010000000000000000024F40045
:10425000000000000000000000000000000000005E
:10426000000000000000000000000000000000004E
:10427000000000000000000000000000000000003E
:10428000000000000000000000000000000000002E
:10429000000000000000000000000000000000001E
:1042A0000000000000000000AAAAAAAA0000000066
:0442B000000000000A
:040000050800018965
:00000001FF
